:020000041FFFDC
:100800000000000019DAFF1F240A0020540A00200B
:10081000E81B0020000000000000000000000000B5
:1008200000000000000000000000000000000000C8
:1008300000000000000000000000000000000000B8
:1008400000000000000000000000000000000000A8
:100850000000000000000000000000000000000098
:100860000000000000000000000000000000000088
:100870000000000000000000000000000000000078
:100880000000000000000000000000000000000068
:100890000000000000000000000000000000000058
:1008A0000000000000000000000000000000000048
:1008B0000000000000000000000000000000000038
:1008C0000000000000000000000000000000000028
:1008D0000000000000000000000000000000000018
:1008E0000000000000000000000000000000000008
:1008F00000000000000000000000000000000000F8
:1009000000000000000000000000000000000000E7
:1009100000000000000000000000000000000000D7
:1009200000000000000000000000000000000000C7
:1009300000000000000000000000000000000000B7
:1009400000000000000000000000000000000000A7
:100950000000000000000000000000000000000097
:100960000000000000000000000000000000000087
:100970000000000000000000000000000000000077
:100980000000000000000000000000000000000067
:1009900011BFFF1FA5BFFF1FD5EBFF1F0000000009
:1009A0000000000000000000000000000000000047
:1009B0000000000000000000000000000000000037
:1009C0000000000000000000000000000000000027
:1009D0000000000000000000000000000000000017
:1009E0000000000000000000000000000000000007
:1009F00000000000000000000000000000000000F7
:100A000000000000000000000000000000000000E6
:100A100000000000000000000000000000000000D6
:100A200000000000000000000000000000000000C6
:100A300000000000000000000000000000000000B6
:100A400000000000000000000000000000000000A6
:100A50000000000000000000000000000000000096
:100A60000000000000000000000000000000000086
:100A70000000000000000000000000000000000076
:100A80000000000000000000000000000000000066
:100A90000000000000000000000000000000000056
:100AA0000000000000000000000000000000000046
:100AB0000000000000000000000000000000000036
:100AC0000000000000000000000000000000000026
:100AD0000000000000000000000000000000000016
:100AE0000000000000000000000000000000000006
:100AF00000000000000000000000000000000000F6
:100B000000000000000000000000000000000000E5
:100B100000000000000000000000000000000000D5
:100B200000000000000000000000000000000000C5
:100B300000000000000000000000000000000000B5
:100B400000000000000000000000000000000000A5
:100B50000000000000000000000000000000000095
:100B60000000000000000000000000000000000085
:100B70001DC6FF1F00000000000000000000000074
:100B80000000000000000000000000000000000065
:100B90000000000000000000000000000000000055
:100BA00000000000000000000000000069B0FF1F0E
:100BB0000000000000000000F9AFFF1F31B0FF1F70
:100BC000E1AFFF1F00000000000000000000000077
:100BD0000000000000000000000000000000000015
:100BE0000000000000000000000000000000000005
:100BF0000000000015AFFF1F000000000000000013
:0C0C000001FF01FF01FF01FF41000000A7
:020000041FFFDC
:10480000A85C0020D548FF1FDD48FF1FDF48FF1FC1
:104810000000000000000000000000000000000098
:10482000000000000000000000000000E148FF1F41
:104830000000000000000000E348FF1FE548FF1FE4
:104840000000000000000000000000000000000068
:104850000000000000000000000000000000000058
:104860000000000000000000000000000000000048
:104870000000000000000000000000000000000038
:104880000000000000000000000000000000000028
:104890000000000000000000000000000000000018
:1048A0000000000000000000000000000000000008
:1048B00000000000000000000000000000000000F8
:1048C0000348854600F078FC0048004705D9FF1FE3
:1048D000A85C00200448804704480047FEE7FEE744
:1048E000FEE7FEE7FEE7FEE75D75FF1FC148FF1F1D
:1048F00003460B439B0703D009E008C9121F08C0F9
:10490000042AFAD203E00B780370401C491C521EA3
:10491000F9D27047D2B201E00270401C491EFBD2AE
:1049200070470022F6E710B513460A4604461946BA
:10493000FFF7F0FF204610BD0321001D401E037845
:1049400012021A43491EF9D510467047F8B50246BF
:104950004A40D40F42004B0052085B089A4202D2F0
:104960000246084611464A0023D0C30D4A00DDB274
:10497000120EAD1A202D35DA49020126490AF60534
:104980008A19002C00D0524220214F1B1146B940F9
:104990002A411018C20D9A4221D0002C17D0012DA7
:1049A00008DCDA05801AD20F8019D207DBB200F0DA
:1049B0006BFBF8BDDA05801A012340001B06C01806
:1049C00080185A428018CA0F1043490007E049086E
:1049D000C2071143DA05801A80194008801800F0D8
:1049E0004BFBF8BD61000122511A001BF7E70122C1
:1049F000D2075140AAE70122D2075040A6E702465B
:104A000070B54A40D30FDB0740002DD04A002AD0B2
:104A1000010E140E000212020919400A520A8418EB
:104A2000E50104465443000A120A2E045043A41917
:104A30004219200CC543AA18120C0125AD03521CC3
:104A4000521912047F39240400D0521C104301D49F
:104A50004000491EC2B20C06C0092018401C400884
:104A6000802A02D003E0002070BD400840000029E9
:104A700000DA0020184370BD70B502464A40D50FD9
:104A800040004A00ED0740085208002814D0002AD0
:104A900012D0C40DD30D41020120C0055202490AB3
:104AA000520AE41A091812187D34914201D3641C89
:104AB00000E04900002C01DA002070BD0023914283
:104AC00001D3891A0343400849000028F7D100297F
:104AD0000AD0914202D10121C90705E0914201D2D9
:104AE000012101E00121C943E005C018401900F08F
:104AF000C3FA70BD420005D04200120E52428A42F3
:104B000001DB00207047C90508187047F0B507465B
:104B10000846584087B0C00F049048000E46590020
:104B200040084908BC1A884105D2384631461E461D
:104B300017460B4602465800400810434CD0300D33
:104B4000039040055900400D490D0590401A029010
:104B5000402872DA18030121000B0905084301906F
:104B600004980092002805D0019952420020884103
:104B700000920190029840210A1A0199009800F0D1
:104B800047FA05460C466B4607CB00F062FAC0199F
:104B90007141039A0E0D0023D71756401A467A40EA
:104BA000164344D0049A002A2DD0029A012A039A6F
:104BB00015DC1205C01A914101263605001C714111
:104BC000D20F059ED2070093019202962A462346F1
:104BD00000F0A0FA07B0F0BD38463146FAE71605F6
:104BE000224A0F46B218C01AB74101210905001C1C
:104BF0004F4100187F41114618187941E20F1043C8
:104C00006D19644113E0E2076D0815436408C2079B
:104C10001443039A01261205C01A91413605001C5F
:104C20007141CE07400830434908C01851412A4617
:104C3000234600F062FACDE7FFE704980122400026
:104C4000C117121A00238B4104983146C417381A31
:104C5000A141EEE730B40124E407634030BC55E7DE
:104C600030B40124E407614030BC4FE70000E0FFAE
:104C7000F0B51FB488B00B990998002448400999F1
:104C8000C00F490049080991C0070B9900904900DD
:104C900049080B9109990898A64608431CD00B991E
:104CA0000A98084318D0099801244000420D480092
:104CB000410D099824050003000B204309900B982F
:104CC0000003000B20430B9050181C494018002291
:104CD00001901446104605E0002001460DB0F0BDDD
:104CE000032801DA034600E003239C46C11A0AAEFA
:104CF0000AE05F0008ADED5B4F00F75B7D430027E6
:104D0000AA187C41491C5B1E6145F2DD410004ABE1
:104D10005A522104120C0A43240C401C0828DFDBE1
:104D2000019802900099704601910090059B049AA9
:104D30000799069800F0EEF9D0E700000DFCFFFFA0
:104D4000F0B50C465C4085B0E40FE40703944C00DA
:104D500000266408590094464908024602962243F8
:104D600021D062460A431ED06200570D4A000E034E
:104D70002303550D012402462C492405781B1B0BE7
:104D8000360B401823432643614600901C46501AB8
:104D9000B44103D30098401C009002E092180098A0
:104DA0005B41002803DA0020014605B0F0BD002079
:104DB000012109050746864611E064461D46141B7D
:104DC000B54106D36546521BB341744607430C43B5
:104DD000A646CD0740084908284392185B4105467E
:104DE0000D43EAD11046184313D06046194650408F
:104DF0007140084306D06046101AB34106D2012222
:104E0000002306E000220123DB0702E00122D24357
:104E10005310009874460105381C6141029C039DA3
:104E20000019694100F069F9BFE70000FD030000C7
:104E300070B54B005B0803430BD04B005C0D0026A4
:104E400033466542B341D417AD1AA34102DB0020BB
:104E5000014670BD12053018514170BDC217C10F17
:104E6000504010B54018CA079623002100F00CF9F5
:104E700010BD10B500229623114600F005F910BDB3
:104E80000EB5C217C10F5040CA0740180021054B8C
:104E90000293019200910A460B4600F03BF903B0E1
:104EA00000BD0000330400000EB505490291002149
:104EB00000910A460B46019100F02CF903B000BDA9
:104EC00033040000410040020122400AD205090ECD
:104ED00080187F2901DA00207047962903DC96228A
:104EE000511AC84070479639884070474A000903F4
:104EF0000123090B1B051943094B10B5520D9A42AA
:104F000001DA002010BD064B34339A4203DC9A1AB2
:104F100000F08EF810BD03495118884010BD000004
:104F2000FF030000CDFBFFFFC20FD2074000400887
:104F30000BD0C10D0723DB01C91840020905400A47
:104F40001143C208400711437047002001467047D3
:104F5000CB0FDB07490010B5490802460A4307D0CA
:104F60000A0D07240903E401090B121B002A01DCC6
:104F7000002010BDC900440F0C43C100E018D20549
:104F8000801800F079F810BD0122D207002800DB5C
:104F9000101A002900DB511A814270470122D20702
:104FA000002800DB101A002900DB511A88427047E4
:104FB000F0B51FB40646002082B00546402401919A
:104FC00000901BE0019922460F46304600F030F871
:104FD000049A059B801A994110D31046194622461F
:104FE00000F016F8361A8F41019722460120002161
:104FF000009F00F00DF838184D4100902046641EC7
:105000000028DFDC019B00982946324607B0F0BD3E
:1050100010B5202A04DB0146203A9140002010BD43
:10502000914020239C1A0346E3401943904010BD51
:1050300010B5202A04DB0846203AD040002110BDDC
:105040000B46D340D0402024A21A91400843194671
:1050500010BD10B5202A06DBCB170846203A1041B8
:10506000C1170B4306E00B461341D0402024A21A7F
:1050700091400843194610BD002904DA401C49003C
:1050800001D140084000704770B40024050C05D1E0
:105090001024000402D1002921D01124050E01D1D1
:1050A00000020834050F01D10001241D850F01D134
:1050B0008000A41C002801DB4000641C002908D0EB
:1050C00020252E1B0D46F540A14000D0012129438B
:1050D000084301061B1B000ADB1D02D5002070BC23
:1050E0007047DB05181880180029F8DA401C4900C1
:1050F000F5D170BC40084000704710B5002B08DAAD
:105100000024401C614192185B411A4301D14008C0
:10511000400010BDF0B51FB482B005460C0003D0AE
:10512000084602F07BFA02E002F078FA20300246EC
:10513000009021462846FFF76BFF049B059A044622
:105140000F4618431143084314D0184610431BD090
:10515000009840210A1A18460599FFF769FF05468D
:105160000E46009A05990498FFF752FF084305D0B0
:10517000012004E02046394607B0F0BD0020C117E9
:1051800005430E432C43374300990E986305401A9C
:105190007905E40A00220C43FD0A0A3002D50020FA
:1051A0000146E9E70105101969410C9C0D9D0019A4
:1051B0006941FFF7A2FFDFE7064C0125064E05E037
:1051C000E36807CC2B430C3C98471034B442F7D328
:1051D000FFF77AFB981B0020E81B002070B58C18A5
:1051E0000578401C6B075B0F01D10378401C2A1126
:1051F00006D10278401C03E006780E70401C491C62
:105200005B1EF9D12B0705D40023521E0DD40B7061
:10521000491CFAE70378401CCB1A921C03E01D7866
:105220000D70491C5B1C521EF9D5A142D8D3002039
:1052300070BD000003B40148019001BD6902000087
:1052400003B40148019001BD7181000003B401481D
:10525000019001BDB142010003B40148019001BDBC
:10526000D542010003B40148019001BD593A010043
:1052700003B40148019001BDED3C010003B40148B5
:10528000019001BD1910000003B40148019001BD57
:10529000C93A010003B40148019001BD551800004E
:1052A00003B40148019001BD8117000003B4014817
:1052B000019001BDC13C010003B40148019001BD52
:1052C000A53C010003B40148019001BD391700005D
:1052D00003B40148019001BD3914000003B4014832
:1052E000019001BD1117000003B40148019001BDF8
:1052F000F13E010003B40148019001BD1B3D0100D6
:1053000003B40148019001BD7114000003B40148C9
:10531000019001BDC131000003B40148019001BDFD
:10532000C912000003B40148019001BD3D420100D3
:1053300003B40148019001BD5D19000003B40148A8
:10534000019001BD3518000003B40148019001BD72
:10535000C118000003B40148019001BD35150000DB
:1053600003B40148019001BD4117000003B4014896
:10537000019001BDE915000003B40148019001BD91
:10538000897B000003B40148019001BDD5200000D5
:1053900003B40148019001BDA5E5000003B4014834
:1053A000019001BDC91F000003B40148019001BD77
:1053B000B51E000003B40148019001BD3D1C000072
:1053C00003B40148019001BD0D1D000003B4014864
:1053D000019001BD8306000003B40148019001BDA6
:1053E0000143010003B40148019001BDE120000028
:1053F00003B40148019001BDED3A010003B4014836
:10540000019001BDF53C010003B40148019001BDCC
:105410005D3F010003B40148019001BDDD210000A2
:1054200003B40148019001BD5171000003B401486B
:10543000019001BD9D19010003B40148019001BD17
:105440003921010003B40148019001BD8D440100E0
:1054500003B40148019001BD5590000003B4014818
:10546000019001BD7D3A010003B40148019001BDE6
:10547000913F010003B40148019001BDA942010020
:1054800003B40148019001BD7942010003B4014811
:10549000019001BDD136000003B40148019001BD67
:1054A00001E6000003B40148019001BDBD07000002
:1054B00003B40148019001BD891C000003B40148F8
:1054C000019001BDE907000003B40148019001BD4E
:1054D0006D07000003B40148019001BDFD0E0000FE
:1054E00003B40148019001BD2D0E000003B4014832
:1054F000019001BD3D07000003B40148019001BDCA
:10550000211A000003B40148019001BD050E0000FE
:1055100003B40148019001BD8922000003B4014891
:10552000019001BD610E000003B40148019001BD6E
:105530009D0E000003B40148019001BDD50E00008E
:1055400003B40148019001BD610F000003B401489C
:10555000019001BD9502000003B40148019001BD16
:105560003543010003B40148019001BDE9970000F3
:1055700003B40148019001BD3D98000003B4014807
:10558000019001BDE58D000003B40148019001BD0B
:105590004977010003B40148019001BDE91D0100F4
:1055A00003B40148019001BD1120010003B401487A
:1055B000019001BD4920010003B40148019001BDE3
:1055C000F504010003B40148019001BD411201003E
:1055D00003B40148019001BDFD0A010003B4014874
:1055E000019001BDD90E010003B40148019001BD35
:1055F000CD1C010003B40148019001BD49560100D2
:1056000003B40148019001BD8D3C010003B4014881
:10561000019001BDE55B000003B40148019001BDAC
:10562000E129000003B40148019001BD9937000051
:1056300003B40148019001BD5114000003B40148B6
:10564000019001BD091F000003B40148019001BD94
:10565000A579000003B40148019001BD4103000099
:1056600003B40148019001BDF161000030B5002391
:10567000094D0CE00C785B1C24092C5D04700C783F
:10568000DBB22407240F2C5D4470801C491C93421C
:10569000F0D3002030BD0000861C002010B5054965
:1056A000054801F02DFA0348044A0521083001F0AD
:1056B000EDFB10BDDC1C0020FFFF0000E01A002005
:1056C000F0B585B00E46054614216846FFF729F966
:1056D00009F0EAF804200543A806800F01D0302025
:1056E00005436F46280A787003243946BD70E807E1
:1056F00002D0F078C8700424A80702D53079385554
:10570000641C680716D525488079002806D0A805AE
:1057100001D5307C00E0707A502105E0A80501D564
:10572000307C00E0707A642148436421FFF782FDF9
:105730003855641C280702D5B07A3855641CE80631
:1057400006D5F088000A3855B079641C3855641CB9
:10575000A80603D5307A3855641CE4B2680603D530
:10576000307B3855641CE4B2280603D5707B38556D
:10577000641CE4B2E80503D5B07B3855641CE4B280
:10578000A80503D5707C3855641CE4B268460470E3
:1057900007F076FD00F064F905B0F0BD201C002094
:1057A000FEB59D4C0A252046227A417A0427407D89
:1057B000012A0CD0032A19D120260B00FFF740FD47
:1057C0000B848B96A6B1C1CCDCE8FDFC84000B00F9
:1057D000FFF736FD120A0D141F24292F34394045D6
:1057E000494F555B6167700A03F074FEFEBD08F017
:1057F000EBFE182009F05CFD022018E0002009F003
:1058000057FD032023E001218903607DFFF71EFD82
:10581000FEBD182009F0A2FC6772EDE0002009F03F
:105820009DFC052013E0182009F04CFC0620607256
:10583000E2E0002009F046FC072008E0182009F00B
:1058400057FC0820F3E7002009F052FC09206072A1
:105850000A22D8E7182009F047FD6572CCE0002045
:1058600009F042FDFEBD6421002003F0A3FE0C20E0
:105870002DE06421782003F09DFE0D2027E06421B7
:10588000F02003F097FE0E2021E064214B2003F06E
:1058900081FE0F201BE064214B2003F07BFE1020D3
:1058A00015E05EA003C800900191684607F0E8FC8F
:1058B00011200CE04021FFF7CFFC5A4807F0F2FE20
:1058C00058480AF077F8A4E003F0DEFD01207D22BD
:1058D0006072120197E708F077FE6421002003F060
:1058E00069FE02206072E08A208385E07D2201212A
:1058F000D2008903FFF7AAFC208B002856D0401E57
:105900000004000C208351D103205EE046A2022156
:10591000142001F028FD6421782003F04BFE67720B
:105920005FE07D220121D2008903FFF78FFC208BED
:1059300000283BD0401E0004000C208336D10520F7
:1059400043E03AA20221142001F00DFD6421F02071
:1059500003F030FE062019E07D220121D2008903E8
:10596000FFF774FC208B002820D0401E0004000CA0
:1059700020831BD1072028E02DA20221142001F052
:10598000F2FC64214B2003F005FE0820607228E041
:105990007D220121D2008903FFF758FC208B0028CB
:1059A00004D0401E0004000C20830DD080B2FFF70D
:1059B00060FA0246002301E021E008E002212420F1
:1059C000009603F07BFCFEBD09206072FEBD19A2AB
:1059D0000221142001F0C7FC6421202003F0DAFD2D
:1059E0006572E08A2083FFF744FA02460023022111
:1059F0002420009603F062FC7D22D20003E7208B76
:105A0000002804D0401E0004000C208301D080B286
:105A1000E9E7002001F034FB201C00200500030012
:105A200000000000F4220020473A0000423A000043
:105A3000433A0000573A000001484079704700009F
:105A4000201C002002480079002800D00120704767
:105A5000201C00200148807870470000201C002096
:105A600000B585B014216846FEF75BFF10486A4612
:105A7000C178117001795170417A9170817AD17039
:105A8000C1881171090A5171017A9171017BD1713B
:105A9000417B1172807B50720A21032001F014FDBA
:105AA000002802D0002005B000BD0120FBE7000067
:105AB000F4220020FEB5044640780026A5490028BF
:105AC0007ED00A46002501275278012808D00228F6
:105AD0002CD00A46527A032873D0042872D036E1BB
:105AE000032A01D30AF0CEFA9A48022141700AF043
:105AF000CBFB9848E178407A8842964803D0877675
:105B0000E178417200E08676924809F09DFF914865
:105B10000AF006FC2079002805D08E4908258872F5
:105B200008460AF0C3FC8B48C77078E0032A01D30B
:105B30000AF0A8FA8748E178407A8842854805D07B
:105B40008776E17841720AF0EBFB00E08676E17936
:105B500064295ED87F484078002810D07D4A01280B
:105B60000DD05670E07910726079D080A17930251F
:105B7000090208431746D08007F04CFA27E00022BC
:105B800000929446A37962791B021343714A30252F
:105B9000D288934201D0012200926E4B1A7A914230
:105BA00001D001229446009A002A19D01972617915
:105BB000D980A2791F4612021143D980002802E041
:105BC000BDE033E05BE006D002F0CEFD7E706148C0
:105BD0000AF05AFB02E05F480AF098FCBE7618E033
:105BE0006246002A15D05B4A11726179D180A3798F
:105BF0001B021943D180012806D002F0B5FD55489B
:105C000047700AF041FB02E052480AF0F7FC5148A5
:105C10008676504809F018FF4E480221C17006717F
:105C2000072028434B49FFF74BFD90E0E0780D46F5
:105C3000824206D0AF76E078687246480AF070FB80
:105C400000E0AE76434809F0FFFE6978E87A032960
:105C500003D1A178401C814279D003266E703D4863
:105C60000AF012FBA078E8722871002801D0401ECB
:105C7000E87238480AF072FCEE700720D2E7E0784C
:105C80008242344805D08776E17841720AF048FBB9
:105C900000E086762F4809F0D7FE2079FF280CD047
:105CA0002C49082588720220487008460AF0ECFA50
:105CB00028480AF0FBFB27480676E379FF2B25D01E
:105CC00024483022017A1543037262799C46C280CF
:105CD000A3791B021A43C2808C4501D0477002E0B1
:105CE0008A4200D046701B480AF0CEFA1948407824
:105CF000002802D0012804D006E016480AF006FC6D
:105D000002E014480AF07AFC124807764020054366
:105D100010488021227A0D430273FF23617A0133F8
:105D200041731D43A37AC381C27401754375042175
:105D3000C170067107202843064974E707E0CE705A
:105D400005A003C800900191684607F099FA012068
:105D5000FEBD0000F422002005000300000000004A
:105D6000FEB5284C002525706571A5712572264861
:105D700009F0B4FA7F202549C005086000F004FE50
:105D8000012105224903607DFFF760FA204E694634
:105D9000304600F097FB68460078012806D1684637
:105DA00005706A460121304600F0C8FC1021607D74
:105DB000FFF752FA1748C57017A003C80190029167
:105DC00001A807F05DFA0AF05DF92079002813D0E8
:105DD00014220121607DFFF739FA00F093F807F0F3
:105DE00019F9FF210131607DFFF736FA01214902DF
:105DF000607DFFF731FAFEBD07F0A2F9657008F08B
:105E000095FDEEE7201C002000002041681C0020CA
:105E100005030000F422002005000300000000003C
:105E2000F8B502F0DFF90AF015F9324C324E0125CF
:105E300025706946304600F045FB6846007800282A
:105E400006D1684605706A460121304600F076FCAE
:105E50006078002802D1657008F09EFC07F0DAF83F
:105E6000284665710AF04AFA7D22D2001021607D31
:105E7000FFF7ECF9207901281BD0204A0121607D31
:105E8000FFF7E4F908F052FD1B4AFF21EE32013121
:105E9000607DFFF7DBF91A49002448780223224687
:105EA00000280DD001280BD002280CD003280ED0DA
:105EB00013E0114A0121DD32607DFFF7C7F9E3E706
:105EC0003024CB7001E00824CD700A7105E0032076
:105ED000C870C87A4024401C087100211A2005F0BF
:105EE00089FC07480AF0D0F9072020430449FFF74E
:105EF000E7FBF8BD201C002005030000CA070000D6
:105F0000F4220020FEB507F03BF804460025C0B29D
:105F1000CC490AF045FCCB4F1C3FF8690104090C41
:105F200003D085B2000C0004F861A0060126002809
:105F300023DA20208443387901280AD03E7138784A
:105F4000002809D10A220121787DFFF77FF909F0A5
:105F500063FC387800280DD009F05EFC0121787DC3
:105F6000FFF780F9002805D17D22D2000121787D3C
:105F7000FFF76CF9642280211FE0602084430C202D
:105F800005F0F4FB00280CD03879002809D009F07E
:105F9000D3FC3878002807D10A220121787DFFF749
:105FA00055F9387800280BD00121787DFFF75AF990
:105FB000002805D17D22D2000121787DFFF746F926
:105FC000E80414D5A00712D5600710D50020387357
:105FD0007873B873F8733E7278721E20B8723C46BC
:105FE000F872FFF7DDFB32220421607DEBE0387AA6
:105FF000002872D0E10602D5F878401C70E0F978EC
:1060000000296CD0012802D0022845D062E0787ABD
:1060100000285FD1387B797B0840B97B0840F97B49
:10602000084257D002F0E4F805460AF00DF804469D
:106030007D204001FF21281A2D318842787C09D328
:10604000002802D1032003F01DF9022003F01AF901
:106050007E7406E0002804D0032003F013F900202A
:1060600078746000000E0FD0774878492018884275
:106070000AD3787C002802D1032003F003F9012021
:1060800003F000F97E7425E0787C002822D10B20F3
:106090007872FFF785FB1DE008220021502001F0F7
:1060A00031F9387B797B0840B97B0840F97B08429D
:1060B00010D009220021502001F024F9387C00285A
:1060C00008D163A003C8019100900621684606F03C
:1060D00043FA3E740020F870FEBD77E0FFE7002031
:1060E000F870787A00283FD1E0060DD5B87A3228CA
:1060F0000AD2401CC2B2BA720221642001F002F935
:10610000B87A282800D93E7320070DD5B87A0A2816
:106110000AD9401EC2B2BA720221642001F0F2F81C
:10612000B87A142800D27E73A8070DD5F87A3228E1
:106130000AD2401CC2B2FA720421642001F0E2F8D3
:10614000F87A282800D9BE7368070DD5F87A0A288E
:106150000AD9401EC2B2FA720421642001F0D2F8BA
:10616000F87A142800D2FE73387A032867D1787A37
:10617000022813D30A20044237493848384B05D047
:10618000FA8A8A4200D2D018F88207E01422144218
:1061900004D0FA8A824200D9D11AF982F88A388367
:1061A000FEF767FE024620200090002302212420F3
:1061B00003F084F8002C8FD0E00601D5142200E013
:1061C00096220421787DFFF741F885E7387800288A
:1061D00035D0002D33D0387D002830D16946088075
:1061E000E80601D4E80403D52946684606F0FCFD1C
:1061F00028070CD51B49887E012802D9C007C00F8B
:106200008876C0B270408876164809F01DFCA80751
:1062100009D51448807E0028684602D006F016FD95
:1062200001E006F085FD680709D50E48807E00284C
:10623000684602D006F0F2FC01E006F01FFD002CDB
:10624000BCD149E73C1C0020000090BE0100B0001A
:1062500002800102C00A0000983A000058020000C3
:10626000B0040000F422002010B5034A13210348B3
:1062700000F00CFE10BD0000081B0020401D002097
:10628000F0B5114D8C46114EA9787488059F0029F0
:106290000DD0002F00D06F70641CA1B271809142AC
:1062A00004D30021A9700178491C0170F0BD002BB6
:1062B00000D06B70002C04D0641EA0B270806045CA
:1062C000F4D80120A870F0BD581C00203423002011
:1062D000FFB595B00025109510AA119500F098F81B
:1062E00006460A287CD20446062044432046203035
:1062F000C0B26A460E2107F0CFFB002802D16846E3
:106300008089C5B2179813904048189900780228E0
:1063100013D000201290082911D020462130C7B296
:106320001C2200216846FEF7A3FF6A461C2138465E
:1063300007F0B2FB002805D010E00120EAE7204674
:106340002230ECE76846807EC01F092806D8E9079E
:10635000C90F6A46129B1398FEF790FF1422002182
:1063600007A8FEF785FF20462430C0B207AA1021F7
:1063700007F092FB002812D11022FF2107A8FEF798
:1063800083FF00280BD12534E0B20BAA042107F0CB
:1063900083FBE907C90F07AA1798FEF77BFF703642
:1063A000F0B20CAA102107F077FB002811D10CA83D
:1063B00003F0C9FC00240CAEA0008019018800295C
:1063C00003D08278179800F0BDFD641CE4B2042C61
:1063D000F2D3A80704D50D48017B179800F0A0FD63
:1063E000189804280FD10949087802280BD10A7996
:1063F0001798002A00D001224978002900D00421F2
:106400001143FEF74DFF002019B0F0BD581F0020CA
:10641000F0B50A2485B015460F46002806D001289D
:1064200004D0022810D0032846D11FE0084603F00C
:1064300057FC04460A283FD2002D3DD0062239469B
:106440002846FEF733FF37E01D4E00240E20604340
:10645000801906223946801DFEF72EFF002823D121
:10646000641CE4B20A2CF1D30A241DE00024204667
:10647000062148432330C0B26A46102107F00CFBC6
:1064800000280CD11022FF216846FEF7FDFE0028EF
:1064900005D139466846FEF715FF002804D0641C74
:1064A000E4B20A2CE3D3DFE70A2C05D2002D03D097
:1064B0002946204603F02CFC204605B0F0BD000024
:1064C000D22B002070B50C460146032000020A1AA8
:1064D000002534481300FEF7B3FE1D1012151C1FD3
:1064E0002326282C303234383A3C3E404244464839
:1064F0004A4E50525A5456585A00C07911E0102250
:10650000294902E02849102210312046FEF7CEFE2C
:1065100045E0C06A206042E0224906223C31F4E7AF
:10652000007820703BE0808936E01E494278423195
:10653000EBE71D4982781F39E7E7007AF1E7407AF7
:10654000EFE7184906223031DFE7807AE9E7C07AC1
:10655000E7E7C08920E0808A1EE0C0781CE0C08A9E
:106560001AE0008B18E0408B16E0808B14E00D4998
:1065700006223631C9E7C08B0EE0008C0CE0408C5F
:106580000AE08079CDE7008A06E0408A04E0272906
:1065900004D20846FEF79CFE208000E00225284633
:1065A00070BD0000F41E0020A12B002070B50E4C21
:1065B00000256071A571691EE181FEF78FFE042040
:1065C000E071102200210948FEF752FE0748102210
:1065D00000211030FEF74CFEE5622572657207203F
:1065E000A072E57270BD0000F41E0020A12B0020F7
:1065F000FEB53B4D0C4608040CD56879FEF774FED9
:10660000050004D003F0A8FC2846FEF773FE012025
:10661000C00360E0600403D5012080034840FEBD54
:106620002F48E1070126807900292AD029780029FE
:1066300020D0052821D0287A69460870687A4870E9
:10664000274900A8062230310230FEF72FFEA87A33
:1066500069460872E87A48726879FEF751FE0028A8
:1066600008D00720A871696A002903D009680029A9
:1066700000D0884720467040FEBD03206946087060
:10668000E5E7A1070DD5052809D1E889FEF73EFE0B
:10669000AA8A002A03D002216879FEF7D7FD0220DA
:1066A00019E0600704D5002003F0AEFC042012E0DE
:1066B000200712D52879012802D002280AD107E044
:1066C0000096AB8B6A8B298BE88A00F00BF801E00F
:1066D00000F05AF908206040FEBD0020FEBD000019
:1066E000F41E0020F8B5134C069DA679052E01D0A6
:1066F0001420F8BD104F861FBE4219D2062917D3A9
:10670000BE1DB14214D2FF27F537BA4210D20A2B70
:106710000ED3B3420CD2E08221836283A383284646
:1067200003F072FC04216079FEF796FD0020F8BDAD
:106730001820F8BDF41E00207A0C0000F7B50C46B6
:1067400080490098164642187F4F00257879B9791C
:106750001300FEF775FD190E141BE9204045597012
:10676000777E888FE996A2A9B4BFC8E9E9E9E9D3A1
:10677000E900102C76D11022314674486FE0102CBD
:1067800070D1724810223146103068E0042C69D173
:106790003068F862CEE0012C64D13B7832783A70F0
:1067A000002B0AD0002A07D1022903D0062901D0E4
:1067B000042901D1FEF7B0FDBCE0002A0AD001296E
:1067C00005D0032903D0052901D0042902D10121D4
:1067D000FEF7A8FDAEE0022C44D13088B881A9E0D4
:1067E0001F2C3FD858481F2200214230FEF740FDA1
:1067F0005548224631464230FEF758FD524B7C70D8
:1068000042332246012112E01F2C7CD84F481F2220
:1068100000211F38FEF72CFD4C48224631461F3818
:10682000FEF744FD494BBC701F3B2246002178799E
:10683000FEF77EFD83E0012C65D13078042862D814
:10684000387277E0012C5ED1307803285BD87872FB
:1068500070E0062C57D13C48062231463030FEF716
:1068600025FD67E04FE0012C4DD1307807284AD84C
:10687000B8725FE0012C46D13078032843D8F87213
:1068800058E0022C3FD13288BA82002A52D0052922
:1068900050D10221FEF7DAFC4CE0012C33D13078E4
:1068A000012830D8F87045E03088022C2BD106281A
:1068B00029D31921C901884225D8F8823AE03088C5
:1068C000022C20D106281ED31921C90188421AD8CA
:1068D00038832FE03088022C15D1FF21F531884212
:1068E00011D2788326E03088022C0CD10A280AD3F2
:1068F0001921C901884206D8B8831BE03178012CE0
:1069000001D1012901D0182514E00821FEF7AAFCC5
:10691000002801D016250DE0002003F075FB0421AE
:106920007879FEF799FC05E00098272801D2022C1F
:1069300002D002252846FEBD3188FEF7FFFC054641
:10694000F8E70000FFFCFFFFF41E0020A12B002051
:106950001CB50B4CA179002901D011201CBD0028C9
:1069600000D06062064907482C310346019100902F
:10697000103B0022E179607900F016F800201CBD80
:10698000F41E0020B12B002010B50648817905299E
:1069900001D0122010BDC18913224079FEF7D4FC2A
:1069A00010BD0000F41E0020F8B51D460224069F0D
:1069B000079E0B00FEF744FC0A150806060815069C
:1069C00015060615002C0CD1FEF7C4FC040008D1F6
:1069D000324639462846FEF7C3FCFEF7C7FCFEF7F1
:1069E000CBFC2046F8BD08B5002069460090052084
:1069F0004A1C09F089F86846407800090300FEF750
:106A00001FFC0906080A060C0E1114170600502078
:106A100008BD202008BD282008BDA02008BDFF20FB
:106A2000913008BD1920400108BD1920800108BD22
:106A30001920C00108BD08B5002069460090052056
:106A40004A1C09F061F8684640780007000F03000F
:106A5000FEF7F6FB0A06080A060C0F1215181B06AD
:106A6000A02008BD302008BD502008BDFF204130C7
:106A700008BD1920400108BD1920800108BD19205A
:106A8000C00108BD1920000208BD7D20C00108BD5D
:106A900010B5002309E01C012418E468944202D1D7
:106AA0001901081810BD5B1C9BB28B42F3D3002068
:106AB00010BD000070B50F4D0F4CA8702946143161
:106AC000204600F01DF8002128460B460C30CA0075
:106AD00084521218491C09065360090EF7D0012090
:106AE00003F0AEFEA878FEF74DFC0448FEF750FC1C
:106AF00070BD00007C1F0020FFFF0000D1A0FF1F21
:106B000070B50A4C0025A04209D1002082008C52A9
:106B10005218401CC0B295700228F7D370BD03F024
:106B2000A6FA0028FAD00480857070BDFFFF00002F
:106B3000F8B50E460746069900240798002902D0AA
:106B40000B242046F8BD022B01D00D24F9E7117863
:106B50005278120289188DB22946814301D08024CF
:106B6000EFE73846F16800F089F9A842E9D02A46F3
:106B70003846F16800F014FA0400E2D171892A461F
:106B8000384600F0B1F9DCE7FFB50025C1B02E466C
:106B90004198B1000C1821881E48814232D0A0785B
:106BA00000282FD0429A4A994498FFF771FF0700B6
:106BB00028D0194803A900780231C01EC0B2029043
:106BC000002200914498019242894B1C208839464A
:106BD00000F040F8002815D1788969468881A078AE
:106BE000C00705D0208803A9439AFEF7D7FB0543C9
:106BF000A078800706D5208803A94B9B439AFEF70F
:106C0000D3FB0543761CF6B2022EC1D3284645B00D
:106C1000F0BD0000FFFF0000EC10FF1F70B50C4638
:106C2000080412D50A488078FEF75EFB050008D0FC
:106C30002878B02802D1284603F034FB2846FEF716
:106C400059FB0120C003604070BD002070BD0000F2
:106C50007C1F0020FFB583B0087A00250C9E1C46DF
:106C60000F46C0060DD5059803F0FAF9030006D0CB
:106C70000A22394603989847050035D101E00E25D0
:106C800032E0387802281DD17868292201784078CE
:106C900012020002081881B2881A91427ED009DCE3
:106CA0007348081A23D0012821D002284FD0032886
:106CB00008D125E0012872D0022871D003286DD0B8
:106CC00004286ED0059803F0F3F900286AD005680F
:106CD000002DD4D00E990D98019100903346224694
:106CE00039460398A8470546284607B0F0BD0D98D9
:106CF000002872D1F868017831700278416896E016
:106D00000D98002869D101203070F86800210078C2
:106D100020707889401C80B2FEF74CFB00280DD013
:106D2000317802788918891C3170817A61704189C3
:106D3000090AA17002784168E01C79E030780422E9
:106D4000001D30700021601CFEF792FACCE70D9810
:106D5000002875D1F86802A90088009004203070DE
:106D6000009820700098000A60700098FEF722FBDF
:106D7000070029D0F86800906846028901AB3D49B8
:106D80003846FEF71DFB002810D13B7802213A4817
:106D90007A68FEF71BFB002808D104E026E030E00B
:106DA0001CE04AE062E03348694688800098007839
:106DB00002280CD1009802224168201DFEF776FAC5
:106DC0003078801C307002E0694600988880684600
:106DD0008088A070000AE07086E731E00D980028F6
:106DE0002ED1F968039800F049F804E00D980028C6
:106DF00026D1F8680088022131702070000A607086
:106E000072E7F868FEF7E8FA0D99C0B2814212D82D
:106E1000814201D1002206E00E9A8918814202D3F4
:106E20000D99401AC2B23270F9680D9809182046BF
:106E3000FEF73CFA58E7072556E70D98002801D0E1
:106E40000B2551E70721F8683170017821704178EE
:106E500061708178A1704188090AE170017921711E
:106E600081796171C088000AA0713DE700252FE794
:106E700000280000FFFF00001E7C010010B503F099
:106E8000F6F8002800D0807810BD00007CB51546CB
:106E9000040019D0684601940180FEF7A3FA0300AC
:106EA0001DD1002D1BD06489002C0DD00C20FEF7C5
:106EB0009FFA00280AD0002303608480094A856075
:106EC0005168002904D006E0022308E0132306E0FD
:106ED000506004E011460A68002AFBD10860184699
:106EE0007CBD00007C1F0020F8B50C4C07462078C4
:106EF00015460E46FF280FD00A20FEF77FFA010044
:106F00000AD0B12008700020487008714F80CE80F0
:106F10000D812078FEF778FAF8BD00007C1F002074
:106F200070B50C4605460649FFF7A8FF800704D553
:106F300021462846FEF76EFA70BD012070BD0000A4
:106F4000901F00201CB56B461A71120A5A7100225C
:106F50000092022301AA00F001F81CBDFFB583B026
:106F600008461F4601A90C9EFEF724FA050014D01E
:106F70006846808803F09CF800280AD04468002CFA
:106F800009D000963B462946059A0398A04707B0CA
:106F9000F0BD0024F3E70E20F9E70120F7E7000039
:106FA00070B514460E46054603F061F8002806D178
:106FB0003146054803F05BF8002803D00580847053
:106FC000002070BD112070BDFFFF0000014610B50C
:106FD0000020C90704D0034A07210348FFF756FFE2
:106FE00010BD00001C1B0020801E002070B50D4647
:106FF000164600241D490300FEF722F90805123445
:10700000341934222934152D23D81622002118488A
:10701000FEF72EF92A4631461548FEF747F922E0D9
:10702000022D16D111491088103908801BE0082D57
:107030000FD10E48082231460838FDF759FC12E0FE
:10704000012D06D1CA6909493078283107E0012DA0
:1070500001D0182407E0CA6B04493078483103F0A6
:10706000DEFD00E00224204670BD0000801E0020EE
:107070006C2B00200148007870470000EC1B0020BA
:10708000002801D008F076FC0021132004F0B2FBA8
:10709000FEE70000F8B5454F0A46397884460929CD
:1070A00048D00A2946D00B2944D00C2942D00D29BA
:1070B00040D03F4C607A002801D001281AD12078B6
:1070C000002801D0012815D165893A482B1F834239
:1070D00010D2A3891E1F86420CD2AB420AD8002AC6
:1070E00001D0012A06D16046334B344D00282DD003
:1070F000012801D01220F8BD207A01281AD02520BD
:107100000126002904D007290AD0082908D011E057
:10711000E671E273A07405203870FEF781F913E080
:107120006A68928D520605D51A78002A04D024A0E8
:1071300000F050FA2120F8BDA07427481E700121EC
:1071400009030078FEF7EEF826722CE072B60026EE
:10715000052904D0072907D0082905D005E03E708D
:107160001E20FEF763F900E01E7026725820FEF71D
:1071700063F962B6FEF766F9184E194CA8600FE085
:10718000FEF760F9A968884201D3401A01E0711A3C
:107190000818E8607D226969D2005143814202D318
:1071A00020680128ECD00020F8BD00001D12FF1F50
:1071B000421DFF1FFD3F00002312FF1F0C22002075
:1071C0005B4C4C5F4442475D2025303258202530CF
:1071D00032580A0D000000001C12FF1F40420F0031
:1071E0005812FF1F10B50446B031C8B209F0E6FBD3
:1071F0002009103009F0E2FB2007000F01210843AD
:1072000009F0DCFB10BD0000F8B515460E46074638
:10721000FFF7E8FF0C49002468014518285D09F0D4
:10722000E7FB641CE4B2102CF8D3761CF1B23846AC
:10723000FFF7D8FF00242819007C09F0D9FB641C53
:10724000E4B2102CF7D3F8BD99100020F7B5203A1E
:10725000009800240F46D5B27F2803D900208F1C48
:10726000FFB200903946FFF7BDFF0D4E2D012819E2
:10727000305C09F0BDFB641CE4B2082CF7D37F1C22
:10728000F9B20098FFF7AEFF002428198019007AA0
:1072900009F0AEFB641CE4B2082CF6D3FEBD00007E
:1072A000E90A0020F7B507460026029803F032FCF1
:1072B0000546002422E0281B401EC1B20A2006F029
:1072C000A1FB01460298FDF7B5FF0A21FDF7B2FFC9
:1072D0000A46002E05D1681E844202DA002A04D034
:1072E00001262001C019C0B203E02001C019C0B2BC
:1072F00020220199FFF788FF641CE4B2AC42DAD384
:107300002846FEBDF7B507460026029803F002FCAA
:107310000546002423E0281B401EC1B20A2006F0C7
:1073200071FB01460298FDF785FF0A21FDF782FFF8
:10733000002E05D1681E844202DA002906D00126FB
:107340003031E000C019CAB2C0B203E0E000C01999
:10735000C0B220220199FFF779FF641CE4B2AC426D
:10736000D9D32846FEBDF8B517460E46044600257B
:107370000CE031462046FFF769FF0834E4B2782C70
:1073800002D90024B61CF6B26D1CEDB27A5D002A5B
:10739000EFD1F8BDF8B50446002003460A5C850726
:1073A000ED0EAA401343401C0428F7DB01F008F956
:1073B0000028FBD102F058F821022004090E0843EE
:1073C000FF273F0221463940084372B600211A4D7B
:1073D000A960194E0002803E801C3060336062B6A6
:1073E00001F0EEF80028FBD101F03CFF112000066F
:1073F000201869462A695207FCD572B60422AA6091
:1074000004020204240E2243384002431002C01C2E
:10741000306062B628694007FCD530780870307853
:107420004870307888703078C8700098984201D0E1
:107430000020F8BD0120F8BD8000081170B5054698
:10744000002409490948FFF75BFB0948FDF7A0FF45
:10745000E80706D00448074A14210830FFF716FD54
:107460000446204670BD000060200020FFFF0000A1
:10747000C5F3FF1F8C1B002070B50B4600240A4982
:107480001546002804D0022806D00224204670BDEC
:107490004A882A70054902E0CA8805492A701846B8
:1074A000FDF704FFF2E7000050200020502F0020DD
:1074B00050330020002803D00249C86000207047E4
:1074C00011207047502000207CB515460122002471
:1074D0005202914201D918207CBD1A4A0300FDF7DF
:1074E000AFFE0504091015282D0051800A462946D3
:1074F000154803E091800A4629461448FDF7D6FE58
:107500001DE0D1800A4629461148F7E711810A4655
:1075100029461048FDF7CAFE0A4B1420FF211833F4
:1075200000900191184600220A490838FFF72CFB09
:1075300005E051810A4629460748DFE70224204634
:107540007CBD000050200020502F00205031002032
:1075500050330020503500205037002002490148A8
:107560000860704740787D010822002010B57D2119
:10757000C003C900FDF75EFE00F002F810BD000078
:10758000F8B506460027FDF763FF04460648051BCD
:1075900006E0FDF75DFFA04201D3071B00E02F18B6
:1075A000B742F6D3F8BD0000FFFFFF0010B5044658
:1075B00004F010FD02460648831A04F00BFD9042C9
:1075C00001D3801A00E01818A042F6D910BD0000BF
:1075D00040420F000FB410B503A9044B044A0298AF
:1075E00000F03AF910BC08BC04B018473D9CFF1FDE
:1075F0002C2200200FB410B504A9074B02AA03984F
:1076000000F02AF9044602A9002000F05FFB2046A2
:1076100010BC08BC04B01847CD7CFF1F2021020C11
:1076200001D010211046020A01D010460839020983
:1076300001D01046091F820801D01046891E420859
:1076400001D0881E7047081A70470000002805DB2B
:10765000C106C90E0120884001490860704700003A
:1076600000E100E08307FF22DB0E9A408907090E44
:107670009940002808DB830809489B001818036814
:1076800093430B43036070470007000F08388308DB
:1076900004489B001818C36993430B43C3617047A8
:1076A00000E400E000ED00E08307FF22DB0E9A40DB
:1076B0008907090E9940002808DB830809489B00C8
:1076C0001818036893430B43036070470007000FCB
:1076D0000838830804489B001818C36993430B4378
:1076E000C361704700E400E000ED00E08307FF2283
:1076F000DB0E9A408907090E9940002808DB8308B1
:1077000009489B001818036893430B4303607047B4
:107710000007000F0838830804489B001818C36945
:1077200093430B43C361704700E400E000ED00E0C9
:10773000BFF34F8F04490348C860BFF34F8F00BFAA
:10774000FDE700000400FA0500ED00E002E008C8D3
:10775000121F08C1002AFAD170477047002001E0CB
:1077600001C1121F002AFBD170470000FFB581B094
:107770001E46174605460A9C04F0C2FE00901B48B0
:10778000854205D01A498D4202D0062005B0F0BDD1
:107790002846029904F0B4F872B6284604F07EF93F
:1077A0002F610020FF212F46013102E03961401C8A
:1077B000C0B2A042FAD362B6286F000706D5286986
:1077C000641E3070761C2406240E0DD0009804F040
:1077D000A5F9014664206043C0088142ECD905A0A8
:1077E00006F0A8FA0D20D1E70020CFE700500040B6
:1077F0000058004049324320524420544F0A0000B0
:10780000F8B51E4615460F46044604F079FE1048AA
:10781000844204D00F498C4201D00620F8BD39467D
:10782000204604F06DF80028F8D172B6204604F026
:1078300035F9002805D1256131462046069A04F025
:1078400015F962B60028E9D1204604F037F9F8BDF1
:107850000050004000580040FFB591B00F4605466B
:10786000002606E025280AD0149A139990476D1C2B
:10787000761C28780028F5D1304615B0F0BD0024DC
:1078800000940121F34A029400E004436D1C2B781C
:107890000846203B98401042F7D128782A280ED07D
:1078A000022128780246303A092A15D8009A0A237C
:1078B0005A43303A80180C436D1C0090F1E701CF19
:1078C0000090002805DA012040030443009840425C
:1078D0000090022004436D1C28782E2815D1042026
:1078E000044368786D1C2A280AD101CF6D1C0290D0
:1078F0000BE002990A225143303940186D1C029066
:107900002878014630390929F3D928786C2810D015
:1079100006DC4C281AD068280ED06A2817D104E05B
:10792000742813D07A2812D110E0012040050443B6
:107930000CE00121090501E0032109050C436978E8
:10794000814203D10120000524186D1C6D1C28788C
:1079500003906E281ED00CDC632831D004DC002894
:107960008AD0582811D1B2E064287BD069280CD184
:1079700078E073282DD004DC6F2870D0702804D1F3
:10798000A7E075286CD078286BD0149A139990478B
:10799000761C62E06002400F022807D003280AD05C
:1079A000042838680AD006603F1D56E03868F11791
:1079B00006604160F8E738680680F5E70670F3E78F
:1079C0003878694608740020487404A803900120A0
:1079D00003E0386803900020C0433F1D61070FD5C6
:1079E000002101E00199491C029A0191914213DAA8
:1079F0008142F7DB019A0399895C0029F2D10BE0FF
:107A0000002101E00199491C01918142FADB019AB0
:107A10000399895C0029F5D101990098139A401ABD
:107A200000902146149B00F03BF9019980194618FB
:107A300007E0039803990078491C0391149A13995D
:107A400090470198401E0190401CF2D12146149BA2
:107A5000139A009800F014F986196D1C09E741E0AB
:107A600033E034E00A200021049005916002410FC8
:107A7000022905D001CFC2179446032905D007E09B
:107A8000FF1DFF08FF0003CF06E000B2C2179446B7
:107A9000042902D140B2C1178C46002261469445A8
:107AA00006DA0A460021404291418C462D2102E02F
:107AB000210504D52B216A461176012103E0E10757
:107AC00001D02021F7E7019154E00A200BE01020BB
:107AD00009E01020049000210420044308200591AF
:107AE000029003E008200021059104906002410FFC
:107AF000022905D001CF00229446032906D006E0D2
:107B0000FF1DFF08FF0003CF8C4603E080B204296D
:107B100000D1C0B20021019121072BD50399702912
:107B200006D0049A1021059B4A401A4305D00EE066
:107B300040216A461176012108E06146014306D0E2
:107B400030216A4611760399517602210191049AF7
:107B50000821059B4A401A430CD16146014301D1DB
:107B6000610707D530216A461176012101910299FA
:107B7000491E02910399582904D037A103910FA9F6
:107B80000F910DE039A1F9E76146059B049AFDF7D5
:107B90000FFA039B8C469B5C0F9A521E0F92137038
:107BA00061460143F0D10F9807A9081A20300390CD
:107BB000600704D5012000048443029801E00120FD
:107BC00002900399884201DD401A00E0002041182C
:107BD0000290019809180098401A0090E00306D41A
:107BE0002146149B139A009800F05AF88619002039
:107BF000049008E006A9085C149A13999047049829
:107C0000401C761C049001998842F3DBE0030CD5FC
:107C10002146149B139A009800F042F8861904E05C
:107C2000149A302013999047761C0299481E0290AE
:107C30000029F5DC08E00F980F990078491C0F9196
:107C4000149A13999047761C0399481E03900029B3
:107C5000F1DCFBE6092801003031323334353637A8
:107C60003839616263646566000000003031323388
:107C70003435363738394142434445460000000028
:107C8000F8B5044600251E461746880404D405E0CE
:107C900039462020B0476D1C641EF9D52846F8BD32
:107CA000FFB50446002581B01E46C80301D5302724
:107CB00000E02027880404D505E038460399B04742
:107CC0006D1C641EF9D5284605B0F0BD0A68531C2A
:107CD0000B6010707047000004490868FF22120210
:107CE00090430122D2031043086070471CE400E077
:107CF00010B5FDF7B3FB0120FDF7B6FBFDF7BAFBAE
:107D0000002010BDF0B500248E464A1E12E07146D8
:107D100000230D1B6D1E0AE09E0031188C4687590A
:107D200049688F4202D9815161464F605B1C9D4278
:107D3000F2D8641C9442EAD3F0BD000070B50498F8
:107D400000241546002801D00B2070BD4868027839
:107D50004078000210180E4A80B290420AD10D48B5
:107D60005F2102785F2A00D9017001211970007823
:107D700028700BE0084A904207D102201870024692
:107D8000C9682846FDF792FA00E00A24204670BD33
:107D9000192A0000D41C002008290000F0B5044670
:107DA00085B000266D480196007901281BD10C2072
:107DB00003F0DCFC002816D101A8216802F020FEA7
:107DC0000198FDF7B1F8664A664BFCF751FF05468E
:107DD0000F462068FDF7A8F82A463B46FCF73AFF15
:107DE000FDF7B6F8206002F08FFE00287ED05E4DD1
:107DF0006F78032F7BD25D492068FCF700FE5C4D55
:107E0000012F44D8FDF790F8064602910F462888C6
:107E1000FDF74AF8574A584BFCF72AFF32463B46D3
:107E2000FCF78EFF02460B4600200146FCF76EFE73
:107E3000FDF78EF800906888029FFDF735F84D4AEF
:107E40004D4BFCF715FF32463B46FCF779FF0746E2
:107E500003910098FDF768F83A46039BFCF756FE3D
:107E6000FDF776F80090A888029FFDF71DF8434AB9
:107E7000434BFCF7FDFE32463B46FCF761FF0546EF
:107E80000E460098FDF750F82A4633462DE0022FA3
:107E900039D8FDF749F8064635480F46C088FDF742
:107EA00003F8364A364BFCF7E3FE32463B46FCF716
:107EB00047FF02460B4600200146FCF727FEFDF770
:107EC00047F805462A480089FCF7EEFF2B4A2C4B61
:107ED000FCF7CEFE32463B46FCF732FF06460F4625
:107EE0002846FDF721F832463B4601E00BE005E06D
:107EF000FCF70CFEFDF72CF8064604E02149032FA1
:107F000016D0042F28D03046FDF70EF81E4A1F4B1E
:107F1000FCF7AEFE05460E462068FDF705F82A463A
:107F20003346FCF7F3FDFDF713F8206005B0F0BD14
:107F3000A87C2068FCF763FDFCF7F6FF06460F46B9
:107F4000687AFCF7B1FF124A124BFCF791FE3246F9
:107F50003B46FCF7F5FECDE7287EEAE7201C002033
:107F6000A4703D0AD7A3C03FF4220020000048447B
:107F70008C230020CDCCCCCCCCCC0C403D0AD7A35C
:107F8000703D0E400000C8427B14AE47E17AC43F0A
:107F9000762D211FF46C0C407CB54C681546227878
:107FA0006478069E24021219104C92B2E24209D162
:107FB00001220192DBB200962A46FEF7B9FD0400C9
:107FC00003D000E00A2420467CBD697828780902A5
:107FD0004018074980B249680029F4D0002802D02F
:107FE00001208847EFE70220FBE70000FED6FFFFF5
:107FF000D41C002003B5694604480978017069461D
:10800000498841806946898881800CBD101C002008
:1080100038B501681C4C012903D01CA005F08AFE6C
:1080200038BD19491039CA788978D206C906C90FEE
:108030000091D30F027B8168042003F015FA124DE2
:10804000FF21C905083DC84209D3A9882878FDF752
:1080500003F9A98828780522FDF7F8F838BD0F49FB
:10806000FCF7CDFC0E49FCF707FD0021C943FCF7E6
:1080700041FD01466060206800F080F8698828783A
:10808000FDF750F938BD0000181C00200A5F5F4161
:108090004443206572726F720A00000000809743AB
:1080A0000000044270B502F007FC1D4D002828D0E6
:1080B0001D4C1C4A01212078FDF7C8F82878411C86
:1080C000C9B229700A2816D818A005F033FEFF257A
:1080D000013529462078FDF7C5F800281AD1690036
:1080E0002078FDF7BFF8002814D1154A29462078DA
:1080F000FDF7ACF80EE013A005F01CFE0120FEF722
:10810000BFFF1C481C49006802F0CEFF03F014F9C1
:10811000002801D0112070BD0020287070BD000023
:10812000401C0020E2030000351C0020200A2061D2
:108130006420627573792062256420200A000000A3
:10814000DD070000200A205F5F5F5F5F5F5F5F5FAA
:108150005F616463206D6F64756C65207265736523
:10816000745F5F5F5F5F5F5F5F5F5F5F5F5F202088
:108170000A000000081C00201180FF1F10B50846EF
:108180001149FCF73CFCFCF79DFE80B20F4C1049F6
:108190006080884201D9642003E00E49884202D2FF
:1081A0000020207010BDFCF77FFE00220A4BFCF778
:1081B00051FD0022094BFCF75BFD0022084BFCF748
:1081C000BFFDFCF793FEECE700007A440C1C002096
:1081D00036100000E40C000000C8A940000059401F
:1081E00000908A4001480078704700000C1C002075
:1081F00001484088704700000C1C002010B504485E
:108200000021016141610D2003F094FA002010BDAE
:10821000081C002010B5FFF745FF10BD10B504463F
:10822000042800D90424FDF715FC00281AD1012CDC
:1082300007D0022C07D0032C07D0042C07D015241C
:1082400006E0172404E0192402E01B2400E01D24AA
:10825000224600216020FEF7D7FF621C002170201B
:10826000FEF7D2FFFDF7EEFB1249002848780AD04E
:10827000002816D101204870242200214020FEF75A
:10828000C3FF252209E000280BD0002048700146DA
:1082900020224020FEF7B8FF202200215020FEF7C8
:1082A000B3FFFDF7C9FB002802D0012008F026F833
:1082B00010BD0000411C002010B504000DD0642C3E
:1082C00025D0202200211020FEF7C0FF0A212046E1
:1082D000FCF7B0FF3030C2B21FE020220021102096
:1082E000FEF7B4FF202200211820FEF7AFFF202266
:1082F00000211046FEF7AAFF202200212820FEF7C9
:10830000A5FF202200213020FEF7A0FF10BD312262
:1083100000211020FEF79AFF302200211820FEF7DE
:1083200095FF0A212046FCF785FF0A4630320021DE
:108330002020FEF78BFF232200212820FEF764FF78
:1083400010BD000070B59CB0584D0024687018A98D
:108350000C73202113A8FCF7E4FA13AA1BA903202D
:1083600007F0D2FB18A913AA097B5148FEF7E6F9DA
:1083700010A90C7220210AA8FCF7D3FA0AAA12A9A4
:10838000042007F0C1FB10A961200AAA097AC000E5
:10839000FEF7D4F9FEF74FFB064601460620FCF730
:1083A000CDFF31460720FCF7C9FF31460820FCF716
:1083B000C5FF31460920FCF7C1FF69463C488C8364
:1083C00007AA0221401EFEF7B9F9694638480C7623
:1083D00006AA0121801CFEF7B1F9694634480C75E4
:1083E00005AA0121801EFEF7A9F9FEF7FCFA6946ED
:1083F00088832F480A1F02210A30FEF79FF92C4874
:1084000007AA02210B30FEF799F9694628480C8328
:1084100006AA02210C30FEF791F94B20C0006946F4
:108420008882C52005AA02218000FEF787F9012075
:10843000694608740146312004AA0001FEF77EF95E
:1084400006211F20FCF77AFF69460C77182101A846
:10845000FCF767FA01AA07A9022007F055FB694655
:1084600001AA097F0020FEF7C1FD641E2046FEF729
:10847000ADFDFDF713F9FDF7F7FE2046FEF7DEFF31
:10848000281DFFF717F805F0BFFB687808A90870EA
:1084900001208003694648840999089804F064FD26
:1084A00001216878FCF73EFF1CB070BDEC1B00207A
:1084B0000703000010B50C4608040AD50E484078A2
:1084C000FCF712FF002801D0FCF714FF0120C003C5
:1084D0000DE0E00705D008480830FEF739FA012022
:1084E00005E0600405D504F0C9FC0120800360406C
:1084F00010BD002010BD0000EC1B002070B50C204A
:1085000003F034F9144C002815D014480021016000
:10851000416080212078FCF79FFE0125AD022946AD
:108520002078FCF79FFE002804D164222946207899
:10853000FCF78CFE70BD0B2003F018F9002802D068
:1085400001F0B0FB01E001F0BDFBFF222D328021E4
:108550002078FCF795FFE0E7351C0020701C002018
:10856000064AD088642807D2117A491CC9B2117210
:10857000814201D3906900477047000034230020F6
:1085800010B50020054CFF212218401C51704028D6
:10859000FADB06F04BF9207010BD0000605300209C
:1085A00010B50020054CFF212218401C51700628F0
:1085B000FADB06F059F9207010BD000025220020DA
:1085C000084801694907FCD5012181600549052258
:1085D00080390A7002695207FCD50878C007C00FBD
:1085E0007047000080000811F0B58646080CFF2691
:1085F0008446002388B237461C46194601228A4029
:1086000005461540CD402C19A4B2FF2F02D1012CF4
:1086100000D18FB265462A40CA40D21893B2FF2ECD
:1086200002D1012B00D18EB2491C1029E6DB012CAE
:1086300002D0102C08D009E0012B07D13001C0195D
:10864000714608700220F0BD102B01D00320F0BD50
:108650000120F0BDF3B5414A0E46117B83B08B007B
:1086600003981146203900685B185860107B00247D
:10867000401CC0B2384D107323460A2800D3137330
:10868000107C002808D1507C401CC0B250740528D2
:1086900002D301201074537431480078002819D097
:1086A0008878401CC0B288700A2810D98B702B487B
:1086B000A10020380F1828467968FCF76FFC00D21B
:1086C0007D68641C0A2CF2DB0398056042E033707D
:1086D00005B0F0BDD07B00280AD0107C002839D02E
:1086E000002000900190107B002805D0401E04E07F
:1086F0000120D0733070EBE70920C0B20027029050
:108700000298C01B00D509300006810D134820389F
:108710000C1828466168FCF741FC00D26568616866
:108720000098FCF731FC01D2606800906168019804
:10873000FCF70CF97F1CFFB20190052FE0D30099E4
:10874000FCF755F92946FCF752F90649FCF794F96C
:10875000039908600120CDE70000A040E02200203E
:10876000581C00200000404010B5002420011030AB
:10877000C0B220220321FEF747FD641CE4B2072C9F
:10878000F4D310BD10B528210148FCF7CAF810BD7C
:10879000982A0020032806D3012189078B6801222B
:1087A000824093438B607047032806D301218907D9
:1087B0008B680122824013438B6070470148006838
:1087C000704700001010FF1F01229207136801215B
:1087D00081408B43136010680843106070470000AD
:1087E000FEB5044601211B2002F078FF01211B2069
:1087F00003F000F8464D68466C7504700221418014
:10880000012484800021132002F068FF012113203D
:1088100002F090FF07F0A6FFFFF7F0FC0199009827
:10882000FFF7E8FB697D68460170610241804E10E8
:10883000868007F00FFC0199009807F023FB7D224A
:10884000D2003146687DFCF701FD0426684646806B
:108850000199009804F07CFB00F000FE34212D48C3
:10886000FCF75FF82B482C4F20304673BE7038461B
:1088700004F02CFF78780026042800D37E700022B4
:108880001146272003F022FB04F028F92875A87C64
:1088900000281ED005F08AFF01211B2002F01EFFD8
:1088A00000211B2002F0A6FF062002F05FFF002837
:1088B00015D02C716C70272003F0DEFAFDF750FA0A
:1088C0000A220121687DFCF7C1FC06F0A5FF6422A5
:1088D00018E0124A0021092003F0F8FADCE7FDF75E
:1088E0009FFA022002F042FF002809D1012002F085
:1088F0003DFF002804D1032028726E72FCF750FF60
:108900007D22D2008021687DFCF7A0FCFEBD000026
:10891000201C0020C0220020F42200206507002037
:10892000F0B5FA4D87B00C46080409D5687DFCF710
:10893000DBFC002801D0FCF7DDFC0120C0036FE266
:10894000A0040026002816DAFEF794FB01277F0317
:1089500005280AD0684606706A460121EC48FDF7F2
:10896000EDFE2046784007B0F0BD05223946687D0F
:10897000FCF76CFCF5E7A00603D504F007FC20200B
:108980004EE2E0070127002802D0FFF743FCE8E7AA
:1089900060060CD5287A002805D1DE4807F00AF8D1
:1089A000DDA005F0C7F9204640214840DBE720065E
:1089B00003D5FFF7A3FD802032E2600524D5684689
:1089C000067007F057F868460078012802D00228A0
:1089D0000AD016E0E87C002800D0EE742878002841
:1089E0000FD0FDF7BDF90CE02878002809D12879CF
:1089F000012801D0022804D1E87C002801D1FDF72C
:108A00000FFA012080020BE2A00772D5FFF7EAFB04
:108A10000390FFF7EDFB0290BC48001D01F0BAFF88
:108A2000287A002812D0032810D00298FCF73CFACC
:108A3000BD4ABE4BFCF71CF9FCF78AFA02467620C9
:108A4000002100900223084600F038FCAF4801786E
:108A5000B748049005460D3D00297DD014210398A8
:108A6000FCF7E8FB694608750298FCF71DFAAE4A68
:108A7000AE4BFCF7FDF8FCF76BFA0090002069465E
:108A8000087101A96846FFF7E5FD694608790028E5
:108A900003D005A8049A06F09FFA9E4E687BB17831
:108AA000814202D0B07005F0FFFEA2480078002895
:108AB00003D06846007900281ED09F49009888425C
:108AC00018DCA87B401CC0B2A873012814D98F48B9
:108AD0000178002910D00079012802D0FDF740F973
:108AE0000AE0287C002821D0FDF73AF98748C774AE
:108AF00002E0D4E00020A873844F387902280BD01C
:108B0000012813D08A4900202D39087006F014FF7F
:108B1000B87900282BD02DE004206873B17804299F
:108B200002D0B07005F0C0FE042021E0774FB87984
:108B3000002815D17E4E2D3E3078002804D1687B68
:108B4000002801D0401E30703078411C3170FFF792
:108B500065FB3078042800E014E000D90020307074
:108B60006B4A0121DD32787DFCF770FB02E0687B07
:108B7000FFF754FB664A6548DD320121407DFCF772
:108B800065FB8AE061490879022807D0012827D0CF
:108B900067482D380178002971D071E048780E4679
:108BA000002804D105F0F8FD04F034FA7770642051
:108BB000FFF782FB0420FFF731FB5649687B8A7878
:108BC000824202D0887005F06FFE0121707DFCF7B3
:108BD00043FB4F4A0121DD32707DFCF751FC5CE024
:108BE0004A484078002808D105F0D6FD04F012FA72
:108BF000464847704E482D38067014210398FCF7FC
:108C000019FB694608750298FCF74EF9464A474B2E
:108C1000FCF72EF8FCF79CF9009069460E7101A94B
:108C20006846FFF717FD69460879002804D005A8B3
:108C3000049A06F0D1F9A874A87C632801D96320AE
:108C4000A8743449687B8A78824202D0887005F023
:108C50002BFE374E2D3E3078002804D1687B00284B
:108C600001D0401E30703078411C3170FFF7D6FAC9
:108C70003078042800D9002030707BE7FFE70670C9
:108C80002EA005F057F804F05BFA204D6E7006F048
:108C900053FE0121687DFCF7DFFA0220C0E0600787
:108CA00003D5FDF72FF90420BAE0E00616D52878A1
:108CB00000280FD0FEF7DEF905280DD06879FF22D5
:108CC00078406871F5321021687DFCF7BFFA687949
:108CD00007F014FB1020A3E06F71F8E7E00537D52B
:108CE00007F0CCF9A879FF260136002802D0084AFF
:108CF000EE3203E02878002804D0144A3146687D1B
:108D0000FCF7A4FA204670402DE60000201C00204D
:108D100005030000F42200200A20656E64206F66BF
:108D2000202073746F726500FCA9F1D24D62503F30
:108D3000ED220020581C00203333534020200A200D
:108D40005F5F4E6F6E5F5F200A202000DD0700002E
:108D5000A00555D507F078F90190287A002809D0A8
:108D6000032807D03D200090012306215020019ABE
:108D700000F0A4FA287800281DD02B4901988842D9
:108D800002DDFCF7EDFF16E00146284A2848914233
:108D900014DDA97900292FD1AF7126490160072080
:108DA0002549FCF78DFC27E0EE71002001E0EF7112
:108DB000012007F08BFB0120400231E01F4A914265
:108DC00017DAA9790029F6D07F21AE71C9050160B3
:108DD000E879002803D0EE71002007F077FB1648F1
:108DE000AE718078FFF71AFA07201349FCF768FC88
:108DF000E1E7A8790028DED0E8790028D7D0D3E7CA
:108E0000E00407D5FCF72CFE0DA004F093FF012031
:108E1000000305E0600405D5FCF7C2FC01208003D7
:108E20006040A0E500209EE5000084420000704202
:108E3000681C0020CDCC4C3FF422002000005042A2
:108E40000A5F5F5F636F6E6E6563746564215F5F69
:108E50005F0A000010B5134C0A20617D41437D205C
:108E6000C000FCF7E7F91049487010488078C00747
:108E700003D0E07C02280AD00BE0207E00280948BD
:108E800002D007F08BFB10BD07F098FA10BDFFF77A
:108E900067FB207E002802D007F018F910BD07F00C
:108EA0000DF910BDF4220020581C002034230020AE
:108EB00010B50E48422101710D4941610D49816192
:108EC00000210D4A4180537D0C4C5B005B1E0380EA
:108ED000137DC3800172094BC3600123E41E23701C
:108EE000D3750177FFF7B6FF10BD000034230020D3
:108EF000558EFF1F018FFF1FF42200205B1C0020F6
:108F000010B500F0DFF810BD70B5204C00252146EB
:108F1000658058311E4804F06FFC432020711D48C5
:108F200060611D48A0612572194D7D21687DC900D1
:108F300048430A21FCF77EF9401E2080287DE0800E
:108F400016481649E0600120091F0870E87520776F
:108F500020460A216230FBF7E4FC58342046218881
:108F60000A30018061884180A1888180E188C180C8
:108F7000218901810AA004F0DDFE2389E28821888D
:108F800009A004F0D7FE00F01BF870BD34230020C8
:108F9000F4220020C18FFF1FC590FF1F5C1C002022
:108FA0000A5F5F325F5F0A000A202020523A256480
:108FB0002020433A256420204D3A25640A00000011
:108FC00070B539490120394E487035882846FBF77D
:108FD0006BFF02460B4636483649FBF7B1FEFBF7FE
:108FE000B7FF0446690870887F25ED05884211D8CF
:108FF000FBF73FFF2146FBF702FDFBF795FF2E4AEB
:109000002E4BFBF783FDFBF7A3FF0446A8420BDDC5
:109010002C4609E0401AFBF721FF2146FBF7EFFC45
:109020002946FBF7E8FC04462548204D007E6235C2
:10903000002821D02888FBF71CFF2146FBF7DFFC26
:10904000FBF740FF80B206F033F96888FBF711FFA9
:109050002146FBF7D4FCFBF735FF80B206F07EF823
:10906000A888FBF706FF2146FBF7C9FCFBF72AFFA0
:1090700080B206F027F870BDE888FBF7FAFE2146BB
:10908000FBF7BDFCFBF71EFF80B206F031F8288924
:10909000FBF7EFFE2146FBF7B2FCFBF713FF80B2B4
:1090A00006F022F970BD0000581C00203423002077
:1090B000666666666666FE3FA09999999999A93F8A
:1090C000F422002010B5184C207E002809D0002082
:1090D00006F0EEF8002006F041F8002005F0F2FF5F
:1090E00005E0002006F004F8002006F0FDF806F088
:1090F00037FC0E49002008700D4908724880E07561
:109100002071607E02216070002806D0012804D002
:10911000022804D0032803D003E0E17001E001201D
:10912000E07004F057F910BDF4220020581C002014
:109130003423002010B51048104C8078C00705D0AB
:10914000E07C02280CD003280AD00BE0207E002807
:109150000A4802D007F022FA10BD07F02FF910BD1F
:10916000FFF7FEF9207E002802D006F0AFFF10BD09
:1091700006F0A4FF10BD000034230020F4220020DC
:1091800070B5104CA17D881F082802D3FFF79AFF05
:1091900070BD0D48452202710C4A42610C4A826141
:1091A0000023438001220280C2800372094DC56002
:1091B000ED1E2A70E27503770748085C6870FFF7B8
:1091C000B9FF70BDF4220020342300203591FF1F29
:1091D000018FFF1F5B1C00208218002070B54868BB
:1091E000002501784078000208181C4980B2441A12
:1091F000884223D009DC1A49441811D0012C12D01E
:10920000022C15D0032C08D115E0012C19D0022C0A
:109210001AD0032C1BD0292C1CD00A25284670BD3F
:109220001946002001E01946062006F06DFCF5E71E
:1092300019460720F9E719460820F6E719460920DC
:10924000F3E719460A20F0E719460B20EDE7194627
:109250000C20EAE719460D20E7E70000272A000066
:10926000DDD5FFFF064801694907FCD50021816073
:10927000034A0421803A117001694907FCD57047FF
:109280008000081110B5002807D0012806D0022858
:1092900008D0032801D103F0BDFE10BD0423064A07
:1092A000022105E003F0B6FE0423034A1946121D0D
:1092B000202004F093FB10BDE10A0020FFB5044616
:1092C00081B01E4617461046FBF7FCFD82B22046D1
:1092D0000299FEF717F8C0000019C5B2002E2CD075
:1092E0002E2228460299FDF7B1FF012419E02146FC
:1092F0000A2004F087FBFBF7BCFD3946FBF77FFB38
:10930000FBF7E0FD80B20A21FBF794FFE0000A467C
:109310004019C01E3032C0B20299FDF797FF641C9D
:10932000E4B2B442E3D9F0004019401D0A9AC0B239
:109330000299FDF78BFF05B0F0BD28460A9A029905
:10934000FDF784FF0835E8B22022F1E710B50446A6
:10935000002007F0BBF8207800280BD001286AD045
:10936000022806D0032804D103F054FEA078FEF7AB
:1093700055FF10BD204606F067FBA078FEF74EFFB4
:109380000C2206211020FDF73FFF204606F0C8FF03
:109390006078042802D90020607001E00428E8D039
:1093A0000006000E1FD001282DD002283BD0032834
:1093B000DFD100210323284A084604F00FFB0E22C8
:1093C00003211020FDF720FFE07A0321401CC2B2E8
:1093D0002820FDF719FF204A0423921D032138207D
:1093E00004F0FCFA10BD1C4A00210323D21C0846DD
:1093F00004F0F4FA0A2203211020FDF705FF2046AD
:1094000007F084F810BD144A00210323D21C08463B
:1094100004F0E4FA0B2203211020FDF7F5FE2046AC
:1094200007F0ECF810BD0C4A00210323D21E0846B9
:1094300004F0D4FA07E00C2206211020FDF7E4FE28
:10944000204606F06DFF0D2203211020FDF7DCFE03
:10945000204607F02BF810BDD70A002010B503F006
:10946000B5FD03F0FFFD10BD064801694907FCD5B5
:1094700000218160034A0621803A11700169490781
:10948000FCD570478000081170B5104C012525707F
:109490000020207103F06EFE65700121122002F0A1
:1094A0001DF90121122002F0A5F97D22D200290226
:1094B000607DFBF7CBFE64220821607DFBF7C6FED2
:1094C00003A202211420FDF74EFF70BD201C0020D6
:1094D000523A00007CB52C4E69463046FCF7F2FF4C
:1094E000684600780125002806D1684605706A465E
:1094F00001213046FDF722F9244C01A925703046A0
:10950000FCF7E0FF68460079002806D1684605713F
:1095100001AA01213046FDF711F9257000262671B8
:1095200006F0B0FD1E20A072E07203F023FE65700D
:109530000121122002F0D2F80121122002F05AF982
:109540007D22FF21D2000131607DFBF77FFE642286
:109550000821607DFBF77AFEFEF75CFE207D002887
:1095600004D026720A4806F08FFE7CBD07F0CEF9C3
:10957000A27A02216420FDF7C5FEE27A042164206C
:10958000FDF7C0FE7CBD000005030000201C00208C
:10959000F422002010B5064A012351729072D37054
:1095A000002111710F201146FCF78AF810BD000050
:1095B000F422002010B5074A5172D0806420107246
:1095C0000220D0700021117137201146FCF778F885
:1095D00010BD0000F4220020F8B5304E304FF06886
:1095E0003946007878708D7831464B8878795C1EE2
:1095F00001220988A4B2002817D033461B880A3BF1
:10960000012824D0022828D0032830D0042833D0C1
:1096100005283BD0062807D1002D05D17480012CE8
:1096200002D8BA7000207871F8BD002D09D05B1CFB
:1096300098B2891E70808842F6DB0020B8707A717B
:10964000F8BD002B01D07480F8BDBA70F8BD00924F
:10965000C805DAB2010E042304E00220DAB20523C1
:109660000A2100900E48401DFCF70AFEF8BD00924A
:10967000022332220021F5E70A2000900848022345
:1096800008223221401D06F03FF9F8BD0520491F90
:10969000CAB2032337210090E4E7000034230020FE
:1096A000581C002070B5FFF797FF1348447A002C30
:1096B0001ED0124840880A30FBF7DBFB1049FBF74D
:1096C000DBF905462046FBF7D4FB0E49FBF797F97B
:1096D0000D49FBF7D1F90D49FBF738F90C49FBF7B8
:1096E0008EF92946FBF78BF9FBF7ECFB80B200E023
:1096F000002005F0FDFC70BDF42200203423002082
:109700000000C8420000C04200401C460AD7233D6A
:109710000000484470B51C4D1C4EE87A002827D143
:10972000F468FF2160896931401C80B26081884201
:1097300001D3002060817F20C005E0601448407A9A
:10974000FBF797FB1349FBF75AF91349FBF794F919
:109750001249FBF7FBF82061287A002811D00A484B
:10976000142221462038FBF7C3F8204602F076FF8A
:10977000F06806F0F9FD04484038C0680078707061
:1097800070BD01202872F0E774230020581C0020CF
:10979000F42200200000B64200401C46EC51B83DC7
:1097A00010B5FFF7B7FF10BDF8B5854F0122F86877
:1097B00001788448417003469E783B461C885B884C
:1097C0004179A4465D1E0A3CADB200294DD00A2362
:1097D00001295BD002295DD0032964D0052004292A
:1097E00064D0052966D006296FD0072966D00829DC
:1097F00070D0092962D00A2971D00B297BD00C299D
:109800007DD00D296FD00E296ED00F296DD0102973
:109810006CD011296BD012296AD0132969D0642029
:10982000142967D015296FD0664C16296DD01729D9
:109830004BD0182974D0192968D01A2967D01B2950
:1098400070D01C296FD01D296DD01E296CD01F2906
:109850006BD020296AD0212911D1002E0FD17D8013
:10986000012D0CD8A2700020A2E0002E08D05B1CB5
:1098700099B27980A14202DB002181704271F8BD6A
:10988000002B01D07D80F8BD8270F8BD00930A23C3
:10989000462202E001230092282205214948401D6A
:1098A000FCF7EEFCF8BDC822262109E0052346227C
:1098B000009027E05020642300904DE002226FE0EA
:1098C0004048401D03F09CF9F8BD5BE002E006E073
:1098D00011E014E0092001230F22009058E00093CA
:1098E0000123142254E013E016E019E01FE023E006
:1098F00027E02AE02EE00093012328221AE001232A
:109900003C2200902821C9E72DE036E03DE041E00F
:109910004B22D2003221D3E70A230092152209E01C
:1099200001223DE03BE03DE03FE040E042E00093CB
:10993000012332221421B1E700930223372223218D
:10994000ACE705235522009022E00020022350229C
:10995000009032E0052300902D223C211948401D43
:1099600005F0D2FFB0E703216046FBF763FCC1B20C
:109970000020E2B20A23009090E705232D224B211C
:109980000090EBE700930523ABE700930123192236
:10999000022183E70F200A23142200900DE0002209
:1099A00000218DE7282214218AE71F2000E02020D3
:1099B000607189E7009301233C220A216EE70000D1
:1099C00034230020581C002070B5FFF7EDFE13482B
:1099D000447A002C1ED0124840880A30FBF749FA1E
:1099E0001049FBF749F805462046FBF742FA0E49B5
:1099F000FBF705F80D49FBF73FF80D49FAF7A6FF0D
:109A00000C49FAF7FCFF2946FAF7F9FFFBF75AFA77
:109A100080B200E0002005F067FC70BDF422002059
:109A2000342300200000C8420000C04200401C4611
:109A30000AD7233D000048440E4910B5884201D999
:109A40000A2010BD0C49884201D20C480EE00C4996
:109A5000884201D20B4809E00B49884201D20B48E9
:109A600004E00449C91C884202D2094800F062F8A7
:109A7000002010BDFC3F0000FF0F0000005000114F
:109A8000FF1F000000600011FF2F00000070001198
:109A9000008000110449884202D90020C043704769
:109AA0000249401800687047FC3F00000050001158
:109AB000F0B504461E480E46844204D8A1198142DE
:109AC00001D8A00701D00A20F0BD0023B7080CE0A0
:109AD0009D002819FFF7DEFF5055010AAD18697087
:109AE000010C000EA970E8705B1C9F42F0D89B002F
:109AF000F01A032804D002280CD0012812D015E057
:109B00001819FFF7C7FFD054040A99184C70000CBD
:109B100088700BE01819FFF7BDFFD054000A9918A0
:109B2000487003E01819FFF7B5FFD0540020F0BDCE
:109B3000FC3F000003460002012100B5000A490372
:109B400088421BD3FEF73CFD0028FBD1FFF78CFCBD
:109B50000B490020886019021804090E0843FF21F0
:109B600009020B4018430649000280392030086082
:109B7000FEF726FD0028FBD1FFF774FB00BD0000B7
:109B8000800008110B4A08B5904201D8820701D025
:109B90000A2008BD00910521090340180002000AAF
:109BA00004226946FDF7F6FB002801D0002008BD1D
:109BB000012008BDFC3F0000F7B505461E4882B0F5
:109BC0001646854205D803996918814201D8A8072D
:109BD00002D00A2005B0F0BD039800248008009050
:109BE0000CE0A700B819401CFAF7A6FE0102F05DD0
:109BF00001437819FFF7C6FF0098641CA042F0D813
:109C00000398A400001B032804D0022808D00128D0
:109C10000CD00FE0A019FAF78FFE0102090A06E046
:109C2000A019417800780902014300E0315D601914
:109C3000FFF7A8FF0020CDE7FC3F000038B5044641
:109C40006846047069460320ABBE204638BD00005C
:109C500010B5002823D0124B0022001F196803E022
:109C6000814203D80A4649680029F9D1002A0AD05E
:109C70001368841A9C4204D10068181810601046BA
:109C800002E0506000E01860002907D002680B1A5B
:109C9000934203D10B68D21802604968416010BD3D
:109CA0003022002010B5064C2079012804D0012074
:109CB000207102F025FC20600020607110BD0000C2
:109CC000701C002010B5054C2079022804D0022019
:109CD000207102F015FC206010BD0000701C0020F7
:109CE00070B50A4D064600240E2060434019062236
:109CF0003146FBF7E1FA002801D0204670BD641C14
:109D0000E4B20A2CF0D30A2070BD0000D22B002050
:109D10007FB50D460A280CD2002D0AD006214843F3
:109D20002030C0B26A460E2103F0B6FE040003D014
:109D300007E0022004B070BD062269462846FBF702
:109D4000B5FA2046F6E700218A00835A491CDB4316
:109D5000835212189378C9B2DB4393700429F3D36A
:109D600070470000F8B5074600200090784CB9789D
:109D7000054607266079A2790B00FBF761FA080512
:109D8000DD1A36365E98C1DD787800285AD17048E1
:109D90000622F91C3C30FBF789FA0120A0716C4BBC
:109DA0000146423362786079FBF7C2FA002849D154
:109DB000C5E07978002945D1F978002906D0654BAE
:109DC000A2780021FBF7B4FA78700AE0022A0BD0DF
:109DD0000121FBF747FA002803D101216079FBF745
:109DE000A1FA787800282DD1F8BD7B78002B29D1F5
:109DF000032909D0A289002A0CD0217800290AD091
:109E00000121FBF723FA06E0052A01D0022012E027
:109E1000062010E02570A079062802D0042802D080
:109E200008E0052007E00120207001466079FBF77B
:109E300079FA84E00320A07181E07878002803D0CB
:109E4000312832D0A6717AE041480622391D3630D9
:109E5000FBF72CFA7889E081B8892082F889608242
:109E60000520A071A28A002A03D002216079FBF7A5
:109E7000EDF9B889E083F8892084388A6084E07835
:109E800001280AD11F20FBF723FA7D21C90048438E
:109E9000024604216079FBF7D9F97A89F87804231E
:109EA000391DFCF715FA257049E02570C2E72848EE
:109EB000062200213630FBF7DBF9E5832584658433
:109EC00004216079FBF7C8F908216079FBF7C4F930
