:020000041FFFDC
:100800000000000001DCFF1F8C100020BC10002045
:1008100098220020000000000000000000000000FE
:1008200000000000000000000000000000000000C8
:1008300000000000000000000000000000000000B8
:1008400000000000000000000000000000000000A8
:100850000000000000000000000000000000000098
:100860000000000000000000000000000000000088
:100870000000000000000000000000000000000078
:100880000000000000000000000000000000000068
:100890000000000000000000000000000000000058
:1008A0000000000000000000000000000000000048
:1008B0000000000000000000000000000000000038
:1008C0000000000000000000000000000000000028
:1008D0000000000000000000000000000000000018
:1008E0000000000000000000000000000000000008
:1008F00000000000000000000000000000000000F8
:1009000000000000000000000000000000000000E7
:1009100000000000000000000000000000000000D7
:1009200000000000000000000000000000000000C7
:1009300000000000000000000000000000000000B7
:1009400000000000000000000000000000000000A7
:100950000000000000000000000000000000000097
:100960000000000000000000000000000000000087
:100970000000000000000000000000000000000077
:100980000000000000000000000000000000000067
:10099000E1C0FF1F75C1FF1F81EEFF1F00000000B7
:1009A0000000000000000000000000000000000047
:1009B0000000000000000000000000000000000037
:1009C0000000000000000000000000000000000027
:1009D0000000000000000000000000000000000017
:1009E0000000000000000000000000000000000007
:1009F00000000000000000000000000000000000F7
:100A000000000000000000000000000000000000E6
:100A100000000000000000000000000000000000D6
:100A200000000000000000000000000000000000C6
:100A300000000000000000000000000000000000B6
:100A400000000000000000000000000000000000A6
:100A50000000000000000000000000000000000096
:100A60000000000000000000000000000000000086
:100A70000000000000000000000000000000000076
:100A80000000000000000000000000000000000066
:100A90000000000000000000000000000000000056
:100AA0000000000000000000000000000000000046
:100AB0000000000000000000000000000000000036
:100AC0000000000000000000000000000000000026
:100AD0000000000000000000000000000000000016
:100AE0000000000000000000000000000000000006
:100AF00000000000000000000000000000000000F6
:100B000000000000000000000000000000000000E5
:100B100000000000000000000000000000000000D5
:100B200000000000000000000000000000000000C5
:100B300000000000000000000000000000000000B5
:100B400000000000000000000000000000000000A5
:100B50000000000000000000000000000000000095
:100B60000000000000000000000000000000000085
:100B7000EDC7FF1F000000000000000000000000A3
:100B80000000000000000000000000000000000065
:100B90000000000000000000000000000000000055
:100BA00000000000000000000000000039B2FF1F3C
:100BB0000000000000000000C9B1FF1F01B2FF1FCC
:100BC000B1B1FF1F000000000000000000000000A5
:100BD0000000000000000000000000000000000015
:100BE0000000000000000000000000000000000005
:100BF00000000000E5B0FF1F000000000000000042
:0C0C000001FF01FF01FF01FF41000000A7
:020000041FFFDC
:1048000060640020D548FF1FDD48FF1FDF48FF1F01
:104810000000000000000000000000000000000098
:10482000000000000000000000000000E148FF1F41
:104830000000000000000000E348FF1FE548FF1FE4
:104840000000000000000000000000000000000068
:104850000000000000000000000000000000000058
:104860000000000000000000000000000000000048
:104870000000000000000000000000000000000038
:104880000000000000000000000000000000000028
:104890000000000000000000000000000000000018
:1048A0000000000000000000000000000000000008
:1048B00000000000000000000000000000000000F8
:1048C0000348854600F086FC00480047EDDAFF1FEC
:1048D000606400200448804704480047FEE7FEE784
:1048E000FEE7FEE7FEE7FEE7E175FF1FC148FF1F99
:1048F00003460B439B0703D009E008C9121F08C0F9
:10490000042AFAD203E00B780370401C491C521EA3
:10491000F9D27047D2B201E00270401C491EFBD2AE
:1049200070470022F6E710B513460A4604461946BA
:10493000FFF7F0FF204610BD30B5044600200346C7
:1049400000E05B1C934203D2E05CCD5C401BF8D0DE
:1049500030BD0321001D401E037812021A43491E78
:10496000F9D510467047F8B502464A40D40F4200C8
:104970004B0052085B089A4202D202460846114692
:104980004A0023D0C30D4A00DDB2120EAD1A202D0D
:1049900035DA49020126490AF6058A19002C00D0A9
:1049A000524220214F1B1146B9402A411018C20D16
:1049B0009A4221D0002C17D0012D08DCDA05801A8C
:1049C000D20F8019D207DBB200F06CFBF8BDDA051C
:1049D000801A012340001B06C01880185A42801814
:1049E000CA0F1043490007E04908C2071143DA051E
:1049F000801A80194008801800F04CFBF8BD610057
:104A00000122511A001BF7E70122D2075140AAE701
:104A10000122D2075040A6E7024670B54A40D30FA4
:104A2000DB0740002DD04A002AD0010E140E0002F0
:104A300012020919400A520A8418E5010446544337
:104A4000000A120A2E045043A4194219200CC5432F
:104A5000AA18120C0125AD03521C521912047F39F9
:104A6000240400D0521C104301D44000491EC2B29D
:104A70000C06C0092018401C4008802A02D003E020
:104A8000002070BD40084000002900DA00201843D3
:104A900070BD70B502464A40D50F40004A00ED0790
:104AA00040085208002814D0002A12D0C40DD30D9B
:104AB00041020120C0055202490A520AE41A0918AB
:104AC00012187D34914201D3641C00E04900002C8F
:104AD00001DA002070BD0023914201D3891A0343FB
:104AE000400849000028F7D100290AD0914202D19C
:104AF0000121C90705E0914201D2012101E0012114
:104B0000C943E005C018401900F0C4FA70BD420066
:104B100005D04200120E52428A4201DB002070474B
:104B2000C905081870470000F0B507460846584008
:104B300087B0C00F049048000E465900400849084D
:104B4000BC1A884105D2384631461E4617460B46E8
:104B500002465800400810434CD0300D03904005E9
:104B60005900400D490D0590401A0290402872DA14
:104B700018030121000B09050843019004980092D5
:104B8000002805D0019952420020884100920190EE
:104B9000029840210A1A0199009800F047FA054648
:104BA0000C466B4607CB00F062FAC0197141039ABC
:104BB0000E0D0023D71756401A467A40164344D0AC
:104BC000049A002A2DD0029A012A039A15DC1205B4
:104BD000C01A914101263605001C7141D20F059E75
:104BE000D2070093019202962A46234600F0A0FACB
:104BF00007B0F0BD38463146FAE71605224A0F469F
:104C0000B218C01AB74101210905001C4F41001814
:104C10007F41114618187941E20F10436D19644124
:104C200013E0E2076D0815436408C2071443039AB2
:104C300001261205C01A91413605001C7141CE07AC
:104C4000400830434908C01851412A46234600F025
:104C500062FACDE7FFE7049801224000C117121A5B
:104C600000238B4104983146C417381AA141EEE75E
:104C700030B40124E407634030BC55E730B401246C
:104C8000E407614030BC4FE70000E0FFF0B51FB41F
:104C900088B00B990998002448400999C00F490031
:104CA00049080991C0070B990090490049080B91E8
:104CB00009990898A64608431CD00B990A980843FE
:104CC00018D0099801244000420D4800410D099870
:104CD00024050003000B204309900B980003000BF0
:104CE00020430B9050181C49401800220190144694
:104CF000104605E0002001460DB0F0BD032801DAA2
:104D0000034600E003239C46C11A0AAE0AE05F0096
:104D100008ADED5B4F00F75B7D430027AA187C418F
:104D2000491C5B1E6145F2DD410004AB5A5221046F
:104D3000120C0A43240C401C0828DFDB0198029067
:104D40000099704601910090059B049A0799069876
:104D500000F0EEF9D0E700000DFCFFFFF0B50C46C7
:104D60005C4085B0E40FE40703944C00002664081F
:104D700059009446490802460296224321D06246D1
:104D80000A431ED06200570D4A000E032303550D3F
:104D9000012402462C492405781B1B0B360B4018B6
:104DA00023432643614600901C46501AB44103D366
:104DB0000098401C009002E0921800985B41002887
:104DC00003DA0020014605B0F0BD002001210905ED
:104DD0000746864611E064461D46141BB54106D3BE
:104DE0006546521BB341744607430C43A646CD07A4
:104DF00040084908284392185B4105460D43EAD113
:104E00001046184313D0604619465040714008437D
:104E100006D06046101AB34106D20122002306E0F4
:104E200000220123DB0702E00122D2435310009845
:104E300074460105381C6141029C039D00196941BB
:104E400000F069F9BFE70000FD03000070B54B00FA
:104E50005B0803430BD04B005C0D002633466542D4
:104E6000B341D417AD1AA34102DB0020014670BD47
:104E700012053018514170BDC217C10F504010B516
:104E80004018CA079623002100F00CF910BD10B598
:104E900000229623114600F005F910BD0EB5C21789
:104EA000C10F5040CA0740180021054B02930192E0
:104EB00000910A460B4600F03BF903B000BD00002C
:104EC000330400000EB505490291002100910A4605
:104ED0000B46019100F02CF903B000BD3304000033
:104EE000410040020122400AD205090E80187F29A4
:104EF00001DA00207047962903DC9622511AC84037
:104F000070479639884070474A0009030123090B0E
:104F10001B051943094B10B5520D9A4201DA0020C6
:104F200010BD064B34339A4203DC9A1A00F08EF817
:104F300010BD03495118884010BD0000FF03000058
:104F4000CDFBFFFFC20FD207400040080BD0C10DC0
:104F50000723DB01C91840020905400A1143C208B2
:104F6000400711437047002001467047CB0FDB0715
:104F7000490010B5490802460A4307D00A0D072424
:104F80000903E401090B121B002A01DC002010BDFB
:104F9000C900440F0C43C100E018D205801800F08E
:104FA00079F810BD0122D207002800DB101A002971
:104FB00000DB511A814270470122D207002800DB32
:104FC000101A002900DB511A88427047F0B51FB44F
:104FD0000646002082B005464024019100901BE067
:104FE000019922460F46304600F030F8049A059B9E
:104FF000801A994110D310461946224600F016F83F
:10500000361A8F410197224601200021009F00F0AF
:105010000DF838184D4100902046641E0028DFDC52
:10502000019B00982946324607B0F0BD10B5202AF2
:1050300004DB0146203A9140002010BD914020231E
:105040009C1A0346E3401943904010BD10B5202A36
:1050500004DB0846203AD040002110BD0B46D34067
:10506000D0402024A21A91400843194610BD10B523
:10507000202A06DBCB170846203A1041C1170B4304
:1050800006E00B461341D0402024A21A9140084369
:10509000194610BD002904DA401C490001D140081E
:1050A0004000704770B40024050C05D110240004A2
:1050B00002D1002921D01124050E01D100020834AB
:1050C000050F01D10001241D850F01D18000A41C12
:1050D000002801DB4000641C002908D020252E1B7D
:1050E0000D46F540A14000D00121294308430106A7
:1050F0001B1B000ADB1D02D5002070BC7047DB05BE
:10510000181880180029F8DA401C4900F5D170BC45
:1051100040084000704710B5002B08DA0024401CFE
:10512000614192185B411A4301D14008400010BD13
:10513000F0B51FB482B005460C0003D0084602F05B
:10514000E1FA02E002F0DEFA203002460090214649
:105150002846FFF76BFF049B059A04460F46184349
:105160001143084314D0184610431BD00098402127
:105170000A1A18460599FFF769FF05460E46009A78
:1051800005990498FFF752FF084305D0012004E079
:105190002046394607B0F0BD0020C11705430E4335
:1051A0002C43374300990E986305401A7905E40AA9
:1051B00000220C43FD0A0A3002D500200146E9E72F
:1051C0000105101969410C9C0D9D00196941FFF7FB
:1051D000A2FFDFE7064C0125064E05E0E36807CC99
:1051E0002B430C3C98471034B442F7D3FFF76CFBC9
:1051F000482200209822002070B58C180578401CA9
:105200006B075B0F01D10378401C2A1106D102788D
:10521000401C03E006780E70401C491C5B1EF9D14F
:105220002B0705D40023521E0DD40B70491CFAE73E
:105230000378401CCB1A921C03E01D780D70491CAA
:105240005B1C521EF9D5A142D8D3002070BD0000CE
:1052500003B40148019001BD6902000003B4014894
:10526000019001BD7181000003B40148019001BDAE
:10527000B142010003B40148019001BDD5420100D3
:1052800003B40148019001BD593A010003B401483B
:10529000019001BDED3C010003B40148019001BD46
:1052A0001910000003B40148019001BDC93A010082
:1052B00003B40148019001BD5518000003B4014832
:1052C000019001BD8117000003B40148019001BDA8
:1052D000C13C010003B40148019001BDA53C01009F
:1052E00003B40148019001BD3917000003B401481F
:1052F000019001BD3914000003B40148019001BDC3
:105300001117000003B40148019001BDF13E0100F6
:1053100003B40148019001BD1B3D010003B40148E5
:10532000019001BD7114000003B40148019001BD5A
:10533000C131000003B40148019001BDC912000051
:1053400003B40148019001BD3D42010003B401488E
:10535000019001BD5D19000003B40148019001BD39
:105360003518000003B40148019001BDC1180000C8
:1053700003B40148019001BD3515000003B4014894
:10538000019001BD4117000003B40148019001BD27
:10539000E915000003B40148019001BD897B0000BC
:1053A00003B40148019001BDD520000003B40148B9
:1053B000019001BDA5E5000003B40148019001BDC5
:1053C000C91F000003B40148019001BDB51E0000D3
:1053D00003B40148019001BD3D1C000003B4014825
:1053E000019001BD0D1D000003B40148019001BDF5
:1053F0008306000003B40148019001BD0143010090
:1054000003B40148019001BDE120000003B401484C
:10541000019001BDED3A010003B40148019001BDC6
:10542000F53C010003B40148019001BD5D3F01005E
:1054300003B40148019001BDDD21000003B401481F
:10544000019001BD5171000003B40148019001BDFC
:105450009D19010003B40148019001BD39210100EB
:1054600003B40148019001BD8D44010003B401481B
:10547000019001BD5590000003B40148019001BDA9
:105480007D3A010003B40148019001BD913F010044
:1054900003B40148019001BDA942010003B40148D1
:1054A000019001BD7942010003B40148019001BDA2
:1054B000D136000003B40148019001BD01E60000AF
:1054C00003B40148019001BDBD07000003B40148C9
:1054D000019001BD891C000003B40148019001BD89
:1054E000E907000003B40148019001BD6D07000009
:1054F00003B40148019001BDFD0E000003B4014852
:10550000019001BD2D0E000003B40148019001BDC2
:105510003D07000003B40148019001BD211A0000BD
:1055200003B40148019001BD050E000003B4014819
:10553000019001BD8922000003B40148019001BD22
:10554000610E000003B40148019001BD9D0E0000F2
:1055500003B40148019001BDD50E000003B4014819
:10556000019001BD610F000003B40148019001BD2D
:105570009502000003B40148019001BD35430100CC
:1055800003B40148019001BDE997000003B401484C
:10559000019001BD3D98000003B40148019001BD98
:1055A000E58D000003B40148019001BD4977010079
:1055B00003B40148019001BDE91D010003B4014895
:1055C000019001BD1120010003B40148019001BD0B
:1055D0004920010003B40148019001BDF504010018
:1055E00003B40148019001BD4112010003B4014818
:1055F000019001BDFD0A010003B40148019001BD05
:10560000D90E010003B40148019001BDCD1C010079
:1056100003B40148019001BD4956010003B401489B
:10562000019001BD8D3C010003B40148019001BD12
:10563000E55B000003B40148019001BDE1290000D1
:1056400003B40148019001BD9937000003B401483B
:10565000019001BD5114000003B40148019001BD47
:10566000091F000003B40148019001BDA5790000A5
:1056700003B40148019001BD4103000003B4014897
:10568000019001BDF161000030B50023094D0CE02F
:105690000C785B1C24092C5D04700C78DBB22407A9
:1056A000240F2C5D4470801C491C9342F0D30020D1
:1056B00030BD00003A23002010B50549054801F02F
:1056C00045FA0348044A0821083001F005FC10BDE2
:1056D00090230020FFFF000090210020F0B585B04E
:1056E0000E46054614216846FFF71BF909F032FA09
:1056F00004200543A806800F01D0302005436F46E3
:10570000280A787003243946BD70E80702D0F07883
:10571000C8700424A80702D530793855641C68077E
:1057200016D525488079002806D0A80501D5307CFB
:1057300000E0707A502105E0A80501D5307C00E03A
:10574000707A642148436421FFF782FD3855641C58
:10575000280702D5B07A3855641CE80606D5F088CB
:10576000000A3855B079641C3855641CA80603D566
:10577000307A3855641CE4B2680603D5307B38555E
:10578000641CE4B2280603D5707B3855641CE4B26F
:10579000E80503D5B07B3855641CE4B2A80503D5F1
:1057A000707C3855641CE4B26846047007F050FE03
:1057B00000F064F905B0F0BDD0220020FEB59D4C8C
:1057C0000A252046227A417A0427407D012A0CD0FE
:1057D000032A19D120260B00FFF740FD0B848B967E
:1057E000A6B1C1CCDCE8FDFC84000B00FFF736FD60
:1057F000120A0D141F24292F34394045494F555B97
:105800006167700A03F048FFFEBD08F0CFFF182063
:1058100009F0A4FE022018E0002009F09FFE0320FA
:1058200023E001218903607DFFF71EFDFEBD1820E6
:1058300009F0EAFD6772EDE0002009F0E5FD0520C2
:1058400013E0182009F094FD06206072E2E00020C9
:1058500009F08EFD072008E0182009F09FFD0820C0
:10586000F3E7002009F09AFD092060720A22D8E7C8
:10587000182009F08FFE6572CCE0002009F08AFE46
:10588000FEBD6421002003F077FF0C202DE0642191
:10589000782003F071FF0D2027E06421F02003F051
:1058A0006BFF0E2021E064214B2003F055FF0F20F9
:1058B0001BE064214B2003F04FFF102015E05EA099
:1058C00003C800900191684607F0C2FD11200CE06A
:1058D0004021FFF7CFFC5A4807F0CCFF58480AF0A8
:1058E000EDF9A4E003F0B2FE01207D226072120106
:1058F00097E708F05BFF6421002003F03DFF0220E2
:105900006072E08A208385E07D220121D200890334
:10591000FFF7AAFC208B002856D0401E0004000C84
:10592000208351D103205EE046A20221142001F021
:1059300040FD6421782003F01FFF67725FE07D2245
:105940000121D2008903FFF78FFC208B00283BD078
:10595000401E0004000C208336D1052043E03AA20B
:105960000221142001F025FD6421F02003F004FF42
:10597000062019E07D220121D2008903FFF774FC83
:10598000208B002820D0401E0004000C20831BD157
:10599000072028E02DA20221142001F00AFD642135
:1059A0004B2003F0D9FE0820607228E07D220121FF
:1059B000D2008903FFF758FC208B002804D0401E3A
:1059C0000004000C20830DD080B2FFF760FA02467D
:1059D000002301E021E008E002212420009603F0EA
:1059E00051FDFEBD09206072FEBD19A202211420E6
:1059F00001F0DFFC6421202003F0AEFE6572E08A36
:105A00002083FFF744FA0246002302212420009657
:105A100003F038FD7D22D20003E7208B002804D05C
:105A2000401E0004000C208301D080B2E9E7002072
:105A300001F04CFBD0220020050003000000000014
:105A4000202A0020473A0000423A0000433A000072
:105A5000573A00000148407970470000D0220020EA
:105A600002480079002800D001207047D022002091
:105A70000148807870470000D022002000B585B032
:105A800014216846FEF74DFF10486A46C178117030
:105A900001795170417A9170817AD170C188117108
:105AA000090A5171017A9171017BD171417B1172A7
:105AB000807B50720A21032001F036FD002802D0BD
:105AC000002005B000BD0120FBE70000202A0020D7
:105AD000FEB5044640780026A74900287ED00A4635
:105AE000002501275278012808D002282DD00A4627
:105AF000527A032873D0042872D03AE1032A01D3E2
:105B00000AF0A8FC9C490220487008460AF0A4FD4F
:105B10009948E178407A8842974803D08776E178BF
:105B2000417200E0867694480AF012F992480AF031
:105B3000DFFD2079002805D08F49082588720846A6
:105B40000AF09CFE8C48C7707BE0032A01D30AF060
:105B500081FC8948E178407A8842874805D0877679
:105B6000E17841720AF0C4FD00E08676E1796429AB
:105B700061D8A0790128C0D87F484078002810D08B
:105B80007D4A01280DD05670E07910726079D0807E
:105B9000A1793025090208431746D08007F022FB7F
:105BA00027E0002200929446A37962791B021343F6
:105BB000714A3025D288934201D0012200926E4B67
:105BC0001A7A914201D001229446009A002A19D0F3
:105BD00019726179D9801F46A27902E0C1E037E0ED
:105BE0005FE012021143D980002806D002F098FE2F
:105BF0007E7061480AF030FD02E05F480AF0E0FF85
:105C0000BE7618E06246002A15D05B4A11726179AF
:105C1000D180A3791B021943D180012806D002F05C
:105C20007FFE554847700AF017FD02E052480BF01E
:105C30003FF85148867650480AF08AF84E480221CB
:105C4000C1700671072028434B49FFF747FD90E0DC
:105C5000E0780D46824206D0AF76E078687246481A
:105C60000AF046FD00E0AE7643480AF071F8697824
:105C7000E87A032903D1A178401C814279D0032618
:105C80006E703D480AF0E8FCA078E87228710028A0
:105C900001D0401EE87238480AF0BAFFEE700720C3
:105CA000D2E7E0788242344805D08776E1784172C5
:105CB0000AF01EFD00E086762F480AF049F82079A8
:105CC000FF280CD02C49082588720220487008460D
:105CD0000AF0C2FC28480AF0D1FD27480676E3798D
:105CE000FF2B25D024483022017A154303726279B4
:105CF0009C46C280A3791B021A43C2808C4501D006
:105D0000477002E08A4200D046701B480AF0A4FCAB
:105D100019484078002802D0012804D006E016482F
:105D20000AF04EFF02E014480AF0C2FF124807765C
:105D30004020054310488021227A0D430273FF233F
:105D4000617A013341731D43A37AC381C274017523
:105D500043750421C170067107202843064974E782
:105D600007E0CE7005A003C800900191684607F0D7
:105D70006FFB0120FEBD0000202A0020050003006B
:105D800000000000FEB52B4C00252570657106460D
:105D9000A5712572284809F0F7FB7F202749C00527
:105DA0000860314626A008F0B7F800F013FE012184
:105DB00005224903607DFFF757FA274E69463046B2
:105DC00000F0A6FB68460078012806D168460570F9
:105DD0006A460121304600F0D7FC1021607DFFF7B4
:105DE00049FA1E48C5701EA003C80190029101A87F
:105DF00007F02EFB0AF02EFB2079002813D0142286
:105E00000121607DFFF730FA00F0A2F807F0EAF90F
:105E1000FF210131607DFFF72DFA01214902607DEC
:105E2000FFF728FAFEBD07F073FA657008F0D4FE9C
:105E3000EEE70000D0220020000020411C230020BB
:105E40000A2053797374656D204F666620496E662B
:105E50006F3D25640A00000005030000202A002091
:105E60000500030000000000F8B502F097FA0AF000
:105E7000D9FA334C334E012525706946304600F07F
:105E800047FB68460078002806D1684605706A46D8
:105E90000121304600F078FC6078002802D165705E
:105EA00008F05CFD07F09EF9284665710AF00EFCCB
:105EB0007D22D2001021607DFFF7D6F920790128DC
:105EC0001BD0214A0121607DFFF7CEF908F084FE46
:105ED0001C4AFF21EE320131607DFFF7C5F91B49F5
:105EE000002448780223224600280DD001280BD038
:105EF00002280CD003280ED013E0124A0121DD3213
:105F0000607DFFF7B1F9E3E73024CB7001E00824AE
:105F1000CD700A7105E00320C870C87A4024401C87
:105F2000087100211A2005F04DFD08480AF094FB85
:105F30000AF0A8FD072020430449FFF7CFFBF8BD76
:105F4000D022002005030000CA070000202A0020FC
:105F5000FEB507F0FDF804460025C0B2CC490AF0B2
:105F600079FFCB4F203F386A0104090C03D085B27A
:105F7000000C00043862A0060126002823DA202045
:105F80008443387901280AD03E713878002809D135
:105F90000A220121787DFFF767F909F0B3FD38780F
:105FA00000280DD009F0AEFD0121787DFFF768F9DA
:105FB000002805D17D22D2000121787DFFF754F918
:105FC000642280211FE0602084430C2005F0B6FC91
:105FD00000280CD03879002809D009F023FE387841
:105FE000002807D10A220121787DFFF73DF9387892
:105FF00000280BD00121787DFFF742F9002805D158
:106000007D22D2000121787DFFF72EF9E80414D516
:10601000A00712D5600710D5002038737873B873C5
:10602000F8733E7278721E20B8723C46F872FFF721
:10603000C5FB32220421607DEBE0387A002872D063
:10604000E10602D5F878401C70E0F97800296CD0A0
:10605000012802D0022845D062E0787A00285FD17A
:10606000387B797B0840B97B0840F97B084257D0E0
:1060700002F09AF905460AF0CFF904467D20400166
:10608000FF21281A2D318842787C09D3002802D1BB
:10609000032003F0DBF9022003F0D8F97E7406E058
:1060A000002804D0032003F0D1F9002078746000A8
:1060B000000E0FD077487849201888420AD3787CA0
:1060C000002802D1032003F0C1F9012003F0BEF93A
:1060D0007E7425E0787C002822D10B207872FFF7AF
:1060E0006DFB1DE008220021502001F031F9387BC2
:1060F000797B0840B97B0840F97B084210D009221F
:106100000021502001F024F9387C002808D163A038
:1061100003C8019100900621684606F005FB3E7415
:106120000020F870FEBD77E0FFE70020F870787A75
:1061300000283FD1E0060DD5B87A32280AD2401C9B
:10614000C2B2BA720221642001F002F9B87A28289A
:1061500000D93E7320070DD5B87A0A280AD9401E07
:10616000C2B2BA720221642001F0F2F8B87A14289F
:1061700000D27E73A8070DD5F87A32280AD2401CC7
:10618000C2B2FA720421642001F0E2F8F87A2828F9
:1061900000D9BE7368070DD5F87A0A280AD9401EBF
:1061A000C2B2FA720421642001F0D2F8F87A1428FD
:1061B00000D2FE73387A032867D1787A022813D385
:1061C0000A20044237493848384B05D0FA8A8A42B7
:1061D00000D2D018F88207E01422144204D0FA8AC0
:1061E000824200D9D11AF982F88A3883FEF74FFE2D
:1061F00002462020009000230221242003F042F9CF
:10620000002C8FD0E00601D5142200E09622042154
:10621000787DFFF729F885E73878002835D0002DFC
:1062200033D0387D002830D169460880E80601D493
:10623000E80403D52946684606F0BEFE28070CD5BB
:106240001B49887E012802D9C007C00F8876C0B2DA
:1062500070408876164809F07BFDA80709D51448D8
:10626000807E0028684602D006F0D8FD01E006F0E6
:1062700047FE680709D50E48807E0028684602D090
:1062800006F0B4FD01E006F0E1FD002CBCD149E7C9
:10629000F0220020000090BE0100B0000280010248
:1062A000C00A0000983A000058020000B004000044
:1062B000202A002010B5034A1321034800F00CFEE9
:1062C00010BD0000B82100202C240020F0B5114D95
:1062D0008C46114EA9787488059F00290DD0002F97
:1062E00000D06F70641CA1B27180914204D3002170
:1062F000A9700178491C0170F0BD002B00D06B70B3
:10630000002C04D0641EA0B270806045F4D8012037
:10631000A870F0BD0C230020602A0020FFB595B0C6
:106320000025109510AA119500F098F806460A2845
:106330007CD204460620444320462030C0B26A4640
:106340000E2107F09DFC002802D168468089C5B265
:1063500017981390404818990078022813D000200D
:106360001290082911D020462130C7B21C220021EA
:106370006846FEF78BFF6A461C21384607F080FC12
:10638000002805D010E00120EAE720462230ECE7A3
:106390006846807EC01F092806D8E907C90F6A46EB
:1063A000129B1398FEF778FF1422002107A8FEF72E
:1063B0006DFF20462430C0B207AA102107F060FC10
:1063C000002812D11022FF2107A8FEF76BFF00283A
:1063D0000BD12534E0B20BAA042107F051FCE907E8
:1063E000C90F07AA1798FEF763FF7036F0B20CAA20
:1063F000102107F045FC002811D10CA803F085FD01
:1064000000240CAEA00080190188002903D08278F6
:10641000179800F0BDFD641CE4B2042CF2D3A80769
:1064200004D50D48017B179800F0A0FD18980428AA
:106430000FD10949087802280BD10A791798002A48
:1064400000D001224978002900D004211143FEF731
:1064500035FF002019B0F0BD44260020F0B50A2415
:1064600085B015460F46002806D0012804D0022822
:1064700010D0032846D11FE0084603F013FD044660
:106480000A283FD2002D3DD0062239462846FEF785
:106490001BFF37E01D4E00240E20604380190622AA
:1064A0003946801DFEF716FF002823D1641CE4B294
:1064B0000A2CF1D30A241DE000242046062148437B
:1064C0002330C0B26A46102107F0DAFB00280CD155
:1064D0001022FF216846FEF7E5FE002805D1394667
:1064E0006846FEF7FDFE002804D0641CE4B20A2CC6
:1064F000E3D3DFE70A2C05D2002D03D0294620463E
:1065000003F0E8FC204605B0F0BD00008A3300200F
:1065100070B50C460146032000020A1A00253448D3
:106520001300FEF79BFE1D1012151C1F2326282C9E
:10653000303234383A3C3E40424446484A4E50524B
:106540005A5456585A00C07911E01022294902E0E5
:106550002849102210312046FEF7B6FE45E0C06AF9
:10656000206042E0224906223C31F4E700782070A6
:106570003BE0808936E01E4942784231EBE71D4915
:1065800082781F39E7E7007AF1E7407AEFE71849A8
:1065900006223031DFE7807AE9E7C07AE7E7C08991
:1065A00020E0808A1EE0C0781CE0C08A1AE0008BE0
:1065B00018E0408B16E0808B14E00D49062236313E
:1065C000C9E7C08B0EE0008C0CE0408C0AE08079BB
:1065D000CDE7008A06E0408A04E0272904D2084675
:1065E000FEF784FE208000E00225284670BD0000F2
:1065F000E02500205933002070B50E4C0025607155
:10660000A571691EE181FEF777FE0420E07110227A
:1066100000210948FEF73AFE0748102200211030F9
:10662000FEF734FEE562257265720720A072E572FE
:1066300070BD0000E025002059330020FEB53B4D21
:106640000C4608040CD56879FEF75CFE050004D002
:1066500003F064FD2846FEF75BFE0120C00360E006
:10666000600403D5012080034840FEBD2F48E107A8
:106670000126807900292AD02978002920D00528F0
:1066800021D0287A69460870687A4870274900A89E
:10669000062230310230FEF717FEA87A69460872EA
:1066A000E87A48726879FEF739FE002808D007209A
:1066B000A871696A002903D00968002900D08847B9
:1066C00020467040FEBD032069460870E5E7A1073B
:1066D0000DD5052809D1E889FEF726FEAA8A002AE9
:1066E00003D002216879FEF7BFFD022019E06007A0
:1066F00004D5002003F06AFD042012E0200712D523
:106700002879012802D002280AD107E00096AB8B35
:106710006A8B298BE88A00F00BF801E000F05AF947
:1067200008206040FEBD0020FEBD0000E0250020E6
:10673000F8B5134C069DA679052E01D01420F8BD9E
:10674000104F861FBE4219D2062917D3BE1DB14273
:1067500014D2FF27F537BA4210D20A2B0ED3B34218
:106760000CD2E08221836283A383284603F02EFDAE
:1067700004216079FEF77EFD0020F8BD1820F8BDE9
:10678000E02500207A0C0000F7B50C4680490098FF
:10679000164642187F4F00257879B9791300FEF725
:1067A0005DFD190E141BE92040455970777E888FD6
:1067B000E996A2A9B4BFC8E9E9E9E9D3E900102C38
:1067C00076D11022314674486FE0102C70D1724897
:1067D00010223146103068E0042C69D13068F8622C
:1067E000CEE0012C64D13B7832783A70002B0AD08D
:1067F000002A07D1022903D0062901D0042901D19A
:10680000FEF798FDBCE0002A0AD0012905D0032933
:1068100003D0052901D0042902D10121FEF790FD02
:10682000AEE0022C44D13088B881A9E01F2C3FD8BB
:1068300058481F2200214230FEF728FD55482246C5
:1068400031464230FEF740FD524B7C7042332246C7
:10685000012112E01F2C7CD84F481F2200211F3835
:10686000FEF714FD4C48224631461F38FEF72CFD3A
:10687000494BBC701F3B224600217879FEF766FD2C
:1068800083E0012C65D13078042862D8387277E033
:10689000012C5ED1307803285BD8787270E0062C2A
:1068A00057D13C48062231463030FEF70DFD67E0F7
:1068B0004FE0012C4DD1307807284AD8B8725FE0FC
:1068C000012C46D13078032843D8F87258E0022CC6
:1068D0003FD13288BA82002A52D0052950D10221F4
:1068E000FEF7C2FC4CE0012C33D13078012830D8BF
:1068F000F87045E03088022C2BD1062829D31921C5
:10690000C901884225D8F8823AE03088022C20D18B
:1069100006281ED31921C90188421AD838832FE0CE
:106920003088022C15D1FF21F531884211D27883AD
:1069300026E03088022C0CD10A280AD31921C9017B
:10694000884206D8B8831BE03178012C01D1012997
:1069500001D0182514E00821FEF792FC002801D090
:1069600016250DE0002003F031FC04217879FEF7B4
:1069700081FC05E00098272801D2022C02D00225D4
:106980002846FEBD3188FEF7E7FC0546F8E7000023
:10699000FFFCFFFFE0250020593300201CB50B4C05
:1069A000A179002901D011201CBD002800D060620F
:1069B000064907482C31034601910090103B002204
:1069C000E179607900F016F800201CBDE025002078
:1069D0006933002010B506488179052901D01220BD
:1069E00010BDC18913224079FEF7BCFC10BD000028
:1069F000E0250020F8B51D460224069F079E0B00E7
:106A0000FEF72CFC0A1508060608150615060615DD
:106A1000002C0CD1FEF7ACFC040008D132463946FC
:106A20002846FEF7ABFCFEF7AFFCFEF7B3FC2046B2
:106A3000F8BD08B500206946009005204A1C09F001
:106A4000E1F96846407800090300FEF707FC0906F3
:106A5000080A060C0E1114170600502008BD20204D
:106A600008BD282008BDA02008BDFF20913008BD2A
:106A70001920400108BD1920800108BD1920C0015E
:106A800008BD08B500206946009005204A1C09F0A1
:106A9000B9F9684640780007000F0300FEF7DEFBF7
:106AA0000A06080A060C0F1215181B06A02008BDBE
:106AB000302008BD502008BDFF20413008BD1920FE
:106AC000400108BD1920800108BD1920C00108BD82
:106AD0001920000208BD7D20C00108BD10B50023AB
:106AE00009E01C012418E468944202D11901081835
:106AF00010BD5B1C9BB28B42F3D3002010BD000085
:106B000070B50F4D0F4CA87029461431204600F087
:106B10001DF8002128460B460C30CA00845212187A
:106B2000491C09065360090EF7D0012003F06AFFE3
:106B3000A878FEF735FC0448FEF738FC70BD00006D
:106B400068260020FFFF000095A2FF1F70B50A4CC9
:106B50000025A04209D1002082008C525218401C0E
:106B6000C0B295700228F7D370BD03F062FB002815
:106B7000FAD00480857070BDFFFF0000F8B50E46A6
:106B80000746069900240798002902D00B242046C6
:106B9000F8BD022B01D00D24F9E7117852781202CA
:106BA00089188DB22946814301D08024EFE7384609
:106BB000F16800F089F9A842E9D02A463846F16820
:106BC00000F014FA0400E2D171892A46384600F038
:106BD000B1F9DCE7FFB50025C1B02E464198B10000
:106BE0000C1821881E48814232D0A07800282FD06E
:106BF000429A4A994498FFF771FF070028D0194834
:106C000003A900780231C01EC0B202900022009198
:106C10004498019242894B1C2088394600F040F884
:106C2000002815D1788969468881A078C00705D0E9
:106C3000208803A9439AFEF7BFFB0543A07880078D
:106C400006D5208803A94B9B439AFEF7BBFB05435F
:106C5000761CF6B2022EC1D3284645B0F0BD000026
:106C6000FFFF0000EC10FF1F70B50C46080412D5A2
:106C70000A488078FEF746FB050008D02878B0283F
:106C800002D1284603F0F0FB2846FEF741FB012025
:106C9000C003604070BD002070BD00006826002069
:106CA000FFB583B0087A00250C9E1C460F46C0062F
:106CB0000DD5059803F0B6FA030006D00A2239462E
:106CC00003989847050035D101E00E2532E0387869
:106CD00002281DD17868292201784078120200022A
:106CE000081881B2881A91427ED009DC7348081ACC
:106CF00023D0012821D002284FD0032808D125E035
:106D0000012872D0022871D003286DD004286ED0DB
:106D1000059803F0AFFA00286AD00568002DD4D09A
:106D20000E990D98019100903346224639460398FA
:106D3000A8470546284607B0F0BD0D98002872D137
:106D4000F868017831700278416896E00D98002863
:106D500069D101203070F8680021007820707889AE
:106D6000401C80B2FEF734FB00280DD03178027849
:106D70008918891C3170817A61704189090AA17072
:106D800002784168E01C79E030780422001D307000
:106D90000021601CFEF77AFACCE70D98002875D127
:106DA000F86802A9008800900420307000982070D4
:106DB0000098000A60700098FEF70AFB070029D0CF
:106DC000F86800906846028901AB3D493846FEF7F5
:106DD00005FB002810D13B7802213A487A68FEF77B
:106DE00003FB002808D104E026E030E01CE04AE084
:106DF00062E03348694688800098007802280CD108
:106E0000009802224168201DFEF75EFA3078801C4F
:106E1000307002E069460098888068468088A070DB
:106E2000000AE07086E731E00D9800282ED1F9685D
:106E3000039800F049F804E00D98002826D1F8687E
:106E40000088022131702070000A607072E7F868D3
:106E5000FEF7D0FA0D99C0B2814212D8814201D119
:106E6000002206E00E9A8918814202D30D99401A39
:106E7000C2B23270F9680D9809182046FEF724FA5C
:106E800058E7072556E70D98002801D00B2551E754
:106E90000721F8683170017821704178617081783C
:106EA000A1704188090AE1700179217181796171CC
:106EB000C088000AA0713DE700252FE700280000E8
:106EC000FFFF00001E7C010010B503F0B2F900289E
:106ED00000D0807810BD00007CB51546040019D0A4
:106EE000684601940180FEF78BFA03001DD1002D46
:106EF0001BD06489002C0DD00C20FEF787FA0028E7
:106F00000AD0002303608480094A85605168002903
:106F100004D006E0022308E0132306E0506004E0FA
:106F200011460A68002AFBD1086018467CBD0000A3
:106F300068260020F8B50C4C0746207815460E460A
:106F4000FF280FD00A20FEF767FA01000AD0B1200F
:106F500008700020487008714F80CE800D81207825
:106F6000FEF760FAF8BD00006826002070B50C46F8
:106F700005460649FFF7A8FF800704D521462846A5
:106F8000FEF756FA70BD012070BD00007C2600207F
:106F90001CB56B461A71120A5A7100220092022324
:106FA00001AA00F001F81CBDFFB583B008461F46DA
:106FB00001A90C9EFEF70CFA050014D068468088E3
:106FC00003F058F900280AD04468002C09D0009634
:106FD0003B462946059A0398A04707B0F0BD002418
:106FE000F3E70E20F9E70120F7E7000070B514463B
:106FF0000E46054603F01DF9002806D13146054826
:1070000003F017F9002803D005808470002070BDBC
:10701000112070BDFFFF0000014610B50020C90718
:1070200004D0034A07210348FFF756FF10BD0000B4
:10703000CC2100206C25002070B50D46164600249A
:107040001D490300FEF70AF90805123434193422E9
:107050002934152D23D8162200211848FEF716F9D9
:107060002A4631461548FEF72FF922E0022D16D1A7
:1070700011491088103908801BE0082D0FD10E48E7
:10708000082231460838FDF733FC12E0012D06D105
:10709000CA6909493078283107E0012D01D0182448
:1070A00007E0CA6B04493078483103F0A0FE00E0E5
:1070B0000224204670BD00006C25002024330020EF
:1070C00001480078704700009C220020002801D071
:1070D00008F0D4FD0021132004F074FCFEE700004A
:1070E000F8B5454F0A4639788446092948D00A2917
:1070F00046D00B2944D00C2942D00D2940D03F4C1A
:10710000607A002801D001281AD12078002801D007
:10711000012815D165893A482B1F834210D2A389D3
:107120001E1F86420CD2AB420AD8002A01D0012A87
:1071300006D16046334B344D00282DD0012801D0B4
:107140001220F8BD207A01281AD025200126002916
:1071500004D007290AD0082908D011E0E671E273AB
:10716000A07405203870FEF769F913E06A68928D03
:10717000520605D51A78002A04D024A000F09EFA01
:107180002120F8BDA07427481E7001210903007852
:10719000FEF7D6F826722CE072B60026052904D038
:1071A000072907D0082905D005E03E701E20FEF70C
:1071B0004BF900E01E7026725820FEF74BF962B6BC
:1071C000FEF74EF9184E194CA8600FE0FEF748F98B
:1071D000A968884201D3401A01E0711A0818E860D2
:1071E0007D226969D2005143814202D3206801287F
:1071F000ECD00020F8BD00001D12FF1F421DFF1F34
:10720000FD3F00002312FF1F142900205B4C4C5F40
:107210004442475D202530325820253032580A0D2F
:10722000000000001C12FF1F40420F005812FF1FF9
:1072300010B50446B031C8B209F0F4FE2009103090
:1072400009F0F0FE2007000F0121084309F0EAFED3
:1072500010BD0000F8B515460E460746FFF7E8FFDB
:107260000C49002468014518285D09F0F5FE641CEE
:10727000E4B2102CF8D3761CF1B23846FFF7D8FFF1
:1072800000242819007C09F0E7FE641CE4B2102CED
:10729000F7D3F8BD45170020F7B5203A0098002431
:1072A0000F46D5B27F2803D900208F1CFFB2009073
:1072B0003946FFF7BDFF0D4E2D012819305C09F04E
:1072C000CBFE641CE4B2082CF7D37F1CF9B2009803
:1072D000FFF7AEFF002428198019007A09F0BCFEE0
:1072E000641CE4B2082CF6D3FEBD0000951100200A
:1072F000F7B507460026029803F0F4FC0546002483
:1073000022E0281B401EC1B20A2006F06FFC014695
:107310000298FDF79DFF0A21FDF79AFF0A46002E0D
:1073200005D1681E844202DA002A04D00126200119
:10733000C019C0B203E02001C019C0B220220199D7
:10734000FFF788FF641CE4B2AC42DAD32846FEBDE6
:10735000F7B507460026029803F0C4FC0546002452
:1073600023E0281B401EC1B20A2006F03FFC014664
:107370000298FDF76DFF0A21FDF76AFF002E05D187
:10738000681E844202DA002906D001263031E0006E
:10739000C019CAB2C0B203E0E000C019C0B22022D6
:1073A0000199FFF779FF641CE4B2AC42D9D32846B7
:1073B000FEBDF8B517460E46044600250CE03146E2
:1073C0002046FFF769FF0834E4B2782C02D9002484
:1073D000B61CF6B26D1CEDB27A5D002AEFD1F8BD95
:1073E000F8B50446002003460A5C8507ED0EAA4066
:1073F0001343401C0428F7DB01F0BEF90028FBD141
:1074000002F014F921022004090E0843FF273F026D
:1074100021463940084372B600211A4DA960194E21
:107420000002803E801C3060336062B601F0A4F937
:107430000028FBD101F0FAFF112000062018694650
:107440002A695207FCD572B60422AA60040202041B
:10745000240E2243384002431002C01C306062B642
:1074600028694007FCD5307808703078487030784B
:1074700088703078C8700098984201D00020F8BD1C
:107480000120F8BD8000081170B5054600240949A7
:107490000948FFF75BFB0948FDF788FFE80706D0BE
:1074A0000448074A15210830FFF716FD0446204618
:1074B00070BD000058270020FFFF000089F6FF1F65
:1074C0003C22002010B50B4600240E49002806D0AF
:1074D000022809D005280FD00224204610BD488874
:1074E00010700246084903E0C88810700749024638
:1074F0001846FDF7E9FEF0E7888910700246044956
:10750000F6E700003C27002008370020083B002059
:1075100008410020002803D002490861002070477C
:10752000112070473C270020FEB517460246012077
:1075300000244002814201D91820FEBD2148FF25C8
:1075400015261300FDF78AFE060409101524293AB2
:1075500041800A4639461C4803E081800A46394684
:107560001A48FDF7B1FE2AE0C1800A46394618489C
:10757000F7E701810A4639461648FDF7A5FE114B8B
:10758000002224331846134910380096019512E062
:1075900041810A4639461048E3E781810A46394667
:1075A0000E48FDF791FE074B0022243318460B4985
:1075B000083800960195FFF70DFB00E002242046F5
:1075C000FEBD00003C2700200837002008390020BD
:1075D000083B0020083D0020083F00200841002013
:1075E000024901480860704740787D011029002059
:1075F00030B587B00446412801D0422C23D1182150
:107600006846FDF78EF9FF2217216846FDF782F9DB
:1076100000256846412C02D0422C05D00CE01225F2
:1076200004702A460A4904E01225094904702A46D2
:107630001231401CFDF75CF96A4629460520FFF728
:1076400073FF002802D0002007B030BD0120FBE707
:107650004E11002010B57D21C003C900FDF7F8FDD3
:1076600000F002F810BD0000F8B506460027FDF74F
:10767000FDFE04460648051B06E0FDF7F7FEA042A6
:1076800001D3071B00E02F18B742F6D3F8BD000066
:10769000FFFFFF0010B5044604F084FD02460648D3
:1076A000831A04F07FFD904201D3801A00E018187D
:1076B000A042F6D910BD000040420F000FB410B533
:1076C00003A9044B044A029800F048F910BC08BC16
:1076D00004B01847019EFF1F342900200FB410B5D5
:1076E00004A9074B02AA039800F038F9044602A93E
:1076F000002000F06DFB204610BC08BC04B0184709
:10770000D17DFF1F2021020C01D010211046020A5A
:1077100001D010460839020901D01046091F82081D
:1077200001D01046891E420801D0881E7047081AF1
:1077300070470000002805DBC106C90E0120884003
:10774000014908607047000000E100E08307FF2264
:10775000DB0E9A408907090E9940002808DB830850
:1077600009489B001818036893430B430360704754
:107770000007000F0838830804489B001818C369E5
:1077800093430B43C361704700E400E000ED00E069
:107790008307FF22DB0E9A408907090E99400028D3
:1077A00008DB830809489B001818036893430B43C0
:1077B000036070470007000F0838830804489B00E7
:1077C0001818C36993430B43C361704700E400E09A
:1077D00000ED00E08307FF22DB0E9A408907090EC7
:1077E0009940002808DB830809489B0018180368A3
:1077F00093430B43036070470007000F083883086A
:1078000004489B001818C36993430B43C361704736
:1078100000E400E000ED00E0BFF34F8F04490348AF
:10782000C860BFF34F8F00BFFDE700000400FA05FA
:1078300000ED00E0BFF34F8F04490348C860BFF379
:107840004F8F00BFFDE700000400FA0500ED00E0E7
:1078500002E008C8121F08C1002AFAD17047704719
:10786000002001E001C1121F002AFBD17047000077
:10787000FFB581B01E46174605460A9C04F028FF56
:1078800000901B48854205D01A498D4202D006203F
:1078900005B0F0BD2846029904F01AF972B62846E0
:1078A00004F0E4F92F610020FF212F46013102E0AE
:1078B0003961401CC0B2A042FAD362B6286F0007FB
:1078C00006D52869641E3070761C2406240E0DD05F
:1078D000009804F00BFA014664206043C00881421E
:1078E000ECD905A006F018FB0D20D1E70020CFE76A
:1078F0000050004000580040493243205244205478
:107900004F0A0000F8B51E4615460F46044604F01F
:10791000DFFE1048844204D00F498C4201D006207B
:10792000F8BD3946204604F0D3F80028F8D172B6E5
:10793000204604F09BF9002805D1256131462046F8
:10794000069A04F07BF962B60028E9D1204604F0DB
:107950009DF9F8BD0050004000580040FFB591B0BF
:107960000F460546002606E025280AD0149A1399EA
:1079700090476D1C761C28780028F5D1304615B04C
:10798000F0BD002400940121F34A029400E0044376
:107990006D1C2B780846203B98401042F7D1287880
:1079A0002A280ED0022128780246303A092A15D812
:1079B000009A0A235A43303A80180C436D1C0090F9
:1079C000F1E701CF0090002805DA012040030443CD
:1079D000009840420090022004436D1C28782E2815
:1079E00015D10420044368786D1C2A280AD101CFE0
:1079F0006D1C02900BE002990A2251433039401865
:107A00006D1C02902878014630390929F3D928786D
:107A10006C2810D006DC4C281AD068280ED06A28B2
:107A200017D104E0742813D07A2812D110E0012075
:107A3000400504430CE00121090501E0032109058B
:107A40000C436978814203D10120000524186D1C84
:107A50006D1C287803906E281ED00CDC632831D072
:107A600004DC00288AD0582811D1B2E064287BD0E9
:107A700069280CD178E073282DD004DC6F2870D0F1
:107A8000702804D1A7E075286CD078286BD0149AA0
:107A900013999047761C62E06002400F022807D0DD
:107AA00003280AD0042838680AD006603F1D56E033
:107AB0003868F11706604160F8E738680680F5E736
:107AC0000670F3E73878694608740020487404A803
:107AD0000390012003E0386803900020C0433F1D5D
:107AE00061070FD5002101E00199491C029A01911B
:107AF000914213DA8142F7DB019A0399895C0029EC
:107B0000F2D10BE0002101E00199491C0191814271
:107B1000FADB019A0399895C0029F5D10199009853
:107B2000139A401A00902146149B00F03BF90199EA
:107B30008019461807E0039803990078491C0391BF
:107B4000149A139990470198401E0190401CF2D15D
:107B50002146149B139A009800F014F986196D1CA5
:107B600009E741E033E034E00A2000210490059168
:107B70006002410F022905D001CFC21794460329A4
:107B800005D007E0FF1DFF08FF0003CF06E000B2AD
:107B9000C2179446042902D140B2C1178C46002274
:107BA0006146944506DA0A460021404291418C46DE
:107BB0002D2102E0210504D52B216A4611760121F1
:107BC00003E0E10701D02021F7E7019154E00A200A
:107BD0000BE0102009E01020049000210420044351
:107BE00008200591029003E00820002105910490EF
:107BF0006002410F022905D001CF002294460329DB
:107C000006D006E0FF1DFF08FF0003CF8C4603E00F
:107C100080B2042900D1C0B20021019121072BD5E7
:107C20000399702906D0049A1021059B4A401A43F3
:107C300005D00EE040216A461176012108E0614638
:107C4000014306D030216A4611760399517602210C
:107C50000191049A0821059B4A401A430CD16146C0
:107C6000014301D1610707D530216A461176012110
:107C700001910299491E02910399582904D037A114
:107C800003910FA90F910DE039A1F9E76146059B1A
:107C9000049AFDF79BF9039B8C469B5C0F9A521E3E
:107CA0000F92137061460143F0D10F9807A9081A8B
:107CB00020300390600704D501200004844302981B
:107CC00001E0012002900399884201DD401A00E0A2
:107CD000002041180290019809180098401A00905D
:107CE000E00306D42146149B139A009800F05AF83A
:107CF00086190020049008E006A9085C149A1399DC
:107D000090470498401C761C049001998842F3DB4C
:107D1000E0030CD52146149B139A009800F042F81A
:107D2000861904E0149A302013999047761C029922
:107D3000481E02900029F5DC08E00F980F990078A2
:107D4000491C0F91149A13999047761C0399481E69
:107D500003900029F1DCFBE60928010030313233C1
:107D60003435363738396162636465660000000077
:107D70003031323334353637383941424344454661
:107D800000000000F8B5044600251E46174688048A
:107D900004D405E039462020B0476D1C641EF9D597
:107DA0002846F8BDFFB50446002581B01E46C8032D
:107DB00001D5302700E02027880404D505E03846A7
:107DC0000399B0476D1C641EF9D5284605B0F0BD77
:107DD0000A68531C0B601070704700000449086863
:107DE000FF22120290430122D20310430860704721
:107DF0001CE400E010B5FDF73FFB0120FDF742FB5E
:107E0000FDF746FB002010BDF0B500248E464A1E4B
:107E100012E0714600230D1B6D1E0AE09E00311812
:107E20008C46875949688F4202D9815161464F601B
:107E30005B1C9D42F2D8641C9442EAD3F0BD000062
:107E400010B500F0ABFAFDF73DF80022074BFCF748
:107E50001DFF0022064BFCF781FF0022054BFCF7BB
:107E60007DFFFDF751F8C0B210BD000000908A40C0
:107E70000000594000002440F8B5069800261D4631
:107E80001446002801D00B20F8BD4868012702786D
:107E90004078000210181B4A80B2904202D1FFF7CE
:107EA000CFFF14E0174A521C90421DD102F00EFF82
:107EB0001549FCF7B1FDFDF745F80022134BFCF71F
:107EC000D7FE0022124BFCF749FFFDF71DF81149C0
:107ED0000870052028700878207067704A20A0700C
:107EE000E7709F2020710BE00B4A904207D10220DF
:107EF00018700246C9682046FDF7E6F900E00A2638
:107F00003046F8BD1A2A000000007A4400C8A94093
:107F1000000024408823002008290000F0B5044612
:107F200085B0002678480196007901281BD10C20E5
:107F300003F004FD002816D101A8216802F042FEDA
:107F40000198FCF7FFFF714A714BFCF79FFE054655
:107F50000F462068FCF7F6FF2A463B46FCF788FEF2
:107F6000FDF704F8206002F0B7FE00287ED0694DCE
:107F70006F78032F7BD268492068FCF74DFD674D71
:107F8000012F44D8FCF7DEFF064602910F462888F1
:107F9000FCF798FF0022624BFCF778FE32463B4626
:107FA000FCF7DCFE02460B4600200146FCF7BCFD58
:107FB000FCF7DCFF00906888029FFCF783FF594ABA
:107FC000594BFCF763FE32463B46FCF7C7FE0746BB
:107FD00003910098FCF7B6FF3A46039BFCF7A4FD1B
:107FE000FCF7C4FF0090A888029FFCF76BFF4D4A86
:107FF0004D4BFCF74BFE32463B46FCF7AFFE0546C9
:108000000E460098FCF79EFF2A4633462DE0022FCD
:1080100039D8FCF797FF064640480F46C088FCF762
:1080200051FF424A424BFCF731FE32463B46FCF7D9
:1080300095FE02460B4600200146FCF775FDFCF755
:1080400095FF054635480089FCF73CFF374A384B19
:10805000FCF71CFE32463B46FCF780FE06460F4608
:108060002846FCF76FFF32463B4601E00BE005E097
:10807000FCF75AFDFCF77AFF064604E02D49032F72
:1080800016D0042F23D03046FCF75CFF2A4A2B4B36
:10809000FCF7FCFD05460E462068FCF753FF2A4618
:1080A0003346FCF741FDFCF761FF206005B0F0BDF1
:1080B000A87C03280ED908280CD206280AD016E07E
:1080C000FCF7E4FD32463B46FCF748FED2E7287E4B
:1080D00000280CD02068FCF79FFCFCF733FF064615
:1080E0000F46687AFCF7EEFE154A164BE8E7206863
:1080F000FCF792FCFCF726FF06460F46687AFCF771
:10810000E1FE114A114BDBE7D0220020A4703D0AAA
:10811000D7A3C03F202A002000004844B82A0020EE
:10812000000008406666666666660A403D0AD7A398
:10813000703D0E400000C8427B14AE47E17AC43F58
:10814000762D211FF46C0C4037894160E5D0084042
:108150007CB54C68154622786478069E2402121974
:10816000104C92B2E24209D101220192DBB2009698
:108170002A46FEF703FD040003D000E00A2420464F
:108180007CBD6978287809024018074980B249689F
:108190000029F4D0002802D001208847EFE7022010
:1081A000FBE70000FED6FFFF8823002003B56946E9
:1081B0000448097801706946498841806946898880
:1081C00081800CBDC022002038B501681C4C0129FB
:1081D00003D01CA005F0A0FE38BD19491039CA789B
:1081E0008978D206C906C90F0091D30F027B816836
:1081F000042003F021FA124DFF21C905083DC842B1
:1082000009D3A9882878FDF735F8A98828780522A8
:10821000FDF72AF838BD0F49FCF7FEFB0E49FCF7C5
:1082200038FC0021C943FCF772FC014660602068FD
:1082300000F080F869882878FDF782F838BD0000E2
:10824000C82200200A5F5F414443206572726F724A
:108250000A000000008097430000044270B502F05D
:108260000DFC1D4D002828D01D4C1C4A01212078F2
:10827000FCF7FAFF2878411CC9B229700A2816D8E1
:1082800018A005F049FEFF25013529462078FCF7A6
:10829000F7FF00281AD169002078FCF7F1FF0028C9
:1082A00014D1154A29462078FCF7DEFF0EE013A012
:1082B00005F032FE0120FEF709FF1C481C4900684A
:1082C00002F0DAFF03F020F9002801D0112070BD80
:1082D0000020287070BD0000F4220020E20300009E
:1082E000E5220020200A20616420627573792062F3
:1082F000256420200A000000DD070000200A205F1E
:108300005F5F5F5F5F5F5F5F5F616463206D6F648E
:10831000756C652072657365745F5F5F5F5F5F5F3B
:108320005F5F5F5F5F5F20200A000000B8220020CF
:10833000C981FF1F10B508461149FCF76DFBFCF71A
:10834000CFFD80B20F4C10496080884201D9642073
:1083500003E00E49884202D20020207010BDFCF7D5
:10836000B1FD00220A4BFCF783FC0022094BFCF70D
:108370008DFC0022084BFCF7F1FCFCF7C5FDECE797
:1083800000007A44BC22002036100000E40C0000FB
:1083900000C8A9400000594000908A400148007878
:1083A00070470000BC220020014840887047000050
:1083B000BC22002010B504480021016141610D205C
:1083C00003F0A0FA002010BDB822002010B5FFF77E
:1083D00045FF10BD10B50446042800D90424FDF75C
:1083E00047FB00281AD1012C07D0022C07D0032C00
:1083F00007D0042C07D0152406E0172404E0192424
:1084000002E01B2400E01D24224600216020FEF72C
:1084100021FF621C00217020FEF71CFFFDF720FBEE
:108420001249002848780AD0002816D10120487047
:10843000242200214020FEF70DFF252209E000281C
:108440000BD000204870014620224020FEF702FF9A
:10845000202200215020FEF7FDFEFDF7FBFA002848
:1084600002D0012008F032F910BD0000F5220020F2
:1084700010B504000DD0642C25D02022002110203E
:10848000FEF70AFF0A212046FCF7E2FE3030C2B2B6
:108490001FE0202200211020FEF7FEFE20220021F6
:1084A0001820FEF7F9FE202200211046FEF7F4FE08
:1084B000202200212820FEF7EFFE2022002130207C
:1084C000FEF7EAFE10BD312200211020FEF7E4FE87
:1084D000302200211820FEF7DFFE0A212046FCF79B
:1084E000B7FE0A46303200212020FEF7D5FE2322B7
:1084F00000212820FEF7AEFE10BD000070B59CB034
:10850000584D0024687018A90C73202113A8FCF79B
:1085100008FA13AA1BA9032007F074FC18A913AAD0
:10852000097B5148FEF730F910A90C7220210AA8E6
:10853000FCF7F7F90AAA12A9042007F063FC10A9B6
:1085400061200AAA097AC000FEF71EF9FEF799FA1F
:10855000064601460620FCF7FFFE31460720FCF7E1
:10856000FBFE31460820FCF7F7FE31460920FCF7F8
:10857000F3FE69463C488C8307AA0221401EFEF7A1
:1085800003F9694638480C7606AA0121801CFEF7DB
:10859000FBF8694634480C7505AA0121801EFEF7D8
:1085A000F3F8FEF746FA694688832F480A1F02212E
:1085B0000A30FEF7E9F82C4807AA02210B30FEF733
:1085C000E3F8694628480C8306AA02210C30FEF71E
:1085D000DBF84B20C00069468882C52005AA02212D
:1085E0008000FEF7D1F80120694608740146312069
:1085F00004AA0001FEF7C8F806211F20FCF7ACFE14
:1086000069460C77182101A8FCF78BF901AA07A984
:10861000022007F0F7FB694601AA097F0020FEF758
:108620000BFD641E2046FEF7F7FCFDF745F8FDF74D
:1086300041FE2046FEF728FF281DFEF76BFF05F0E0
:10864000D7FB687808A90870012080036946488430
:108650000999089804F070FD01216878FCF770FE14
:108660001CB070BD9C2200200703000010B50C4612
:1086700008040AD50E484078FCF744FE002801D0D3
:10868000FCF746FE0120C0030DE0E00705D00848D6
:108690000830FEF783F9012005E0600405D504F0F9
:1086A000D5FC01208003604010BD002010BD0000FB
:1086B0009C22002070B50C2003F040F9144C0028D7
:1086C00015D0144800210160416080212078FCF71A
:1086D000D1FD0125AD0229462078FCF7D1FD002807
:1086E00004D1642229462078FCF7BEFD70BD0B2022
:1086F00003F024F9002802D001F0B6FB01E001F0FC
:10870000C3FBFF222D3280212078FCF7C7FEE0E773
:10871000E522002024230020064AD088642807D2BE
:10872000117A491CC9B21172814201D39069004784
:1087300070470000602A002010B50020054CFF2182
:108740002218401C51704028FADB06F06FF92070A7
:1087500010BD0000185B002010B50020054CFF2163
:108760002218401C51700628FADB06F07DF92070B3
:1087700010BD00002D290020084801694907FCD5DB
:10878000012181600549052280390A70026952077A
:10879000FCD50878C007C00F7047000080000811A2
:1087A000F0B58646080CFF268446002388B237467B
:1087B0001C46194601228A4005461540CD402C1919
:1087C000A4B2FF2F02D1012C00D18FB265462A40FE
:1087D000CA40D21893B2FF2E02D1012B00D18EB223
:1087E000491C1029E6DB012C02D0102C08D009E02E
:1087F000012B07D13001C019714608700220F0BD6D
:10880000102B01D00320F0BD0120F0BDF3B5414A8B
:108810000E46117B83B08B00039811462039006807
:108820005B185860107B0024401CC0B2384D107398
:1088300023460A2800D31373107C002808D1507CEB
:10884000401CC0B25074052802D301201074537428
:1088500031480078002819D08878401CC0B2887050
:108860000A2810D98B702B48A10020380F182846F1
:108870007968FCF7A1FB00D27D68641C0A2CF2DB4E
:108880000398056042E0337005B0F0BDD07B00284E
:108890000AD0107C002839D0002000900190107B75
:1088A000002805D0401E04E00120D0733070EBE7B3
:1088B0000920C0B2002702900298C01B00D50930E1
:1088C0000006810D134820380C1828466168FCF713
:1088D00073FB00D2656861680098FCF763FB01D206
:1088E0006068009061680198FCF73DF87F1CFFB25A
:1088F0000190052FE0D30099FCF786F82946FCF794
:1089000083F80649FCF7C5F8039908600120CDE714
:108910000000A0400C2A00200C2300200000404052
:1089200010B5002420011030C0B220220321FEF730
:1089300091FC641CE4B2072CF4D310BD10B52821BF
:108940000148FBF7EEFF10BD50320020032806D38C
:10895000012189078B680122824093438B60704715
:10896000032806D3012189078B6801228240134323
:108970008B60704701480068704700001010FF1FAF
:10898000012292071368012181408B431360106814
:108990000843106070470000FEB5044601211B200B
:1089A00002F084FF01211B2003F00CF8464D6846BD
:1089B0006C75047002214180012484800021132001
:1089C00002F074FF0121132002F09CFF08F024FA4A
:1089D000FFF7F0FC01990098FFF7E8FB697D684616
:1089E0000170610241804E10868007F01BFD0199E5
:1089F000009807F02FFC7D22D2003146687DFCF7FD
:108A000033FC0426684646800199009804F088FBF0
:108A100000F006FE34212D48FBF783FF2B482C4F36
:108A200020304673BE70384604F044FF7878002644
:108A3000042800D37E7000221146272003F02EFB6D
:108A400004F034F92875A87C00281FD005F0AEFF8B
:108A500001211B2002F02AFF00211B2002F0B2FF9F
:108A6000062002F06BFF002816D02C716C702720B6
:108A700003F0EAFA0320FDF785F90A220121687D57
:108A8000FCF7F2FB07F03EF8642218E0114A0021DF
:108A9000092003F003FBDBE7FDF7E6F9022002F013
:108AA0004DFF002809D1012002F048FF002804D121
:108AB000032028726E72FCF781FE7D22D200802195
:108AC000687DFCF7D1FBFEBDD0220020EC29002000
:108AD000202A0020190E0020F0B5FD4D87B00C466D
:108AE000080409D5687DFCF70DFC002801D0FCF7CF
:108AF0000FFC0120C00376E2A0040026002816DA4D
:108B0000FEF7DEFA01277F0305280AD068460670C3
:108B10006A460121EF48FDF737FE2046784007B04E
:108B2000F0BD05223946687DFCF79EFBF5E7A006FF
:108B300003D504F013FC202055E2E00701270028AC
:108B400002D0FFF743FCE8E760060CD5287A00283E
:108B500005D1E14807F0B2F8E0A005F0DDF92046C4
:108B600040214840DBE7200603D5FFF7A3FD802026
:108B700039E2600525D56846067007F0FFF86846BB
:108B80000078012802D002280BD017E0E87C0028EA
:108B900000D0EE742878002810D00020FDF7F2F8FD
:108BA0000CE02878002809D12879012801D0022872
:108BB00004D1E87C002801D1FDF756F9012080029C
:108BC00011E2A00775D5FFF7E9FB0390FFF7ECFB77
:108BD0000290BF48001D01F0BFFF287A002812D084
:108BE000032810D00298FCF76DF9C04AC04BFCF77F
:108BF0004DF8FCF7BBF902467620002100900223D5
:108C0000084600F03FFCB2480178BA480490054697
:108C10000D3D00297ED014210398FCF719FB69460D
:108C200008750298FCF74EF9B04AB14BFCF72EF8E4
:108C3000FCF79CF9009000206946087101A968467C
:108C4000FFF7E4FD69460879002803D005A8049AD7
:108C500006F018FBA0488178687B814203D09E49CA
:108C6000887005F077FF9A4E0098A349F061097863
:108C7000002903D06946097900291DD09F498842FF
:108C800018DCA87B401CC0B2A873012814D9307826
:108C9000002811D03079012803D00120FDF772F8A7
:108CA0000AE0287C002821D00120FDF76BF8F7743A
:108CB00002E0D7E00020A873307902280BD0012809
:108CC00014D08C4900202D39087006F0ABFFB07924
:108CD00000282BD02DE004207F4968738A78042A6D
:108CE00002D0887005F036FF042020E0B07900281B
:108CF00015D1804F2D3F3878002804D1687B00289B
:108D000001D0401E38703878411C3970FFF762FB83
:108D1000387800E012E0042800D9002038706D4A4D
:108D20000121DD32707DFCF79FFA02E0687BFFF7DE
:108D300051FB684A707DDD3201217FE0644908798A
:108D4000022807D0012827D06A482D380178002949
:108D500078D078E048780E46002804D105F0FEFD72
:108D600004F040FA77706420FFF782FB0420FFF7DD
:108D700031FB5949687B8A78824202D0887005F0BD
:108D8000E9FE0121707DFCF775FA524A0121DD32BE
:108D9000707DFCF783FB63E04D484078002808D1E4
:108DA00005F0DCFD04F01EFA4948477051482D38A3
:108DB000067014210398FCF74BFA6946087502986F
:108DC000FCF780F8494A4A4BFBF760FFFCF7CEF806
:108DD000009069460E7101A96846FFF717FD6946C4
:108DE0000879002804D005A8049A06F04BFAA87464
:108DF000A87C632801D96320A8743749687B8A78E6
:108E0000824202D0887005F0A5FE3A4E2D3E3078A1
:108E1000002804D1687B002801D0401E30703078D3
:108E2000411C3170FFF7D6FA3078042800D90020B1
:108E30003070284A2648DD320121407DFCF714FAC3
:108E40000EE0FFE706702EA005F066F804F060FA69
:108E50001F4D6E7006F0E6FE0121687DFCF70AFAF0
:108E60000220C0E0600703D5FDF772F80420BAE0E5
:108E7000E00616D5287800280FD0FEF721F905283E
:108E80000DD06879FF2278406871F5321021687D35
:108E9000FCF7EAF9687907F019FC1020A3E06F717C
:108EA000F8E7E00536D507F0D1FAA879FF260136B4
:108EB000002802D0074AEE3203E02878002804D0C8
:108EC000134A3146687DFCF7CFF92046704026E60C
:108ED000D022002005030000202A00200A20656E11
:108EE00064206F66202073746F726500FCA9F1D254
:108EF0004D62503F192A00200C2300203333534089
:108F000020200A205F5F4E6F6E5F5F200A202000E6
:108F1000DD070000A00556D507F07EFA0190287AFB
:108F2000002809D0032807D03D2000900123062106
:108F30005020019A00F0A6FA287800281ED02C496B
:108F40000198884203DD0220FCF71CFF16E0014671
:108F5000284A2948914214DDA97900292FD1AF71FF
:108F60002649016007202649FCF7B8FB27E0EE718F
:108F7000002001E0EF71012007F002FE0120400215
:108F800031E0204A914217DAA9790029F6D07F21F1
:108F9000AE71C9050160E879002803D0EE710020A8
:108FA00007F0EEFD1648AE718078FFF713FA072040
:108FB0001349FCF793FBE1E7A8790028DED0E879B4
:108FC0000028D7D0D3E7E00407D5FCF757FD0EA063
:108FD00004F0A2FF0120000305E0600405D5FCF7C2
:108FE000EDFB01208003604099E5002097E500003B
:108FF00000008442000070421C230020CDCC4C3F76
:10900000202A0020000050420A5F5F5F636F6E6E8F
:109010006563746564215F5F5F0A000010B5134CDF
:109020000A20617D41437D20C000FCF711F9104901
:10903000487010488078C00703D0E07C02280AD02E
:109040000BE0207E0028094802D007F001FE10BD89
:1090500007F09CFB10BDFFF75FFB207E002802D0CD
:1090600007F01CFA10BD07F011FA10BD202A0020ED
:109070000C230020602A002010B50E484221017107
:109080000D4941610D49816100210D4A4180537DA7
:109090000C4C5B005B1E0380137DC3800172094B87
:1090A000C3600123E41E2370D3750177FFF7B6FF79
:1090B00010BD0000602A00201D90FF1FC990FF1FF7
:1090C000202A00200F23002010B500F0DFF810BD8B
:1090D00070B5204C00252146658058311E4804F0AB
:1090E0007FFC432020711D4860611D48A0612572EE
:1090F000194D7D21687DC90048430A21FCF7A8F875
:10910000401E2080287DE08016481649E06001203E
:10911000091F0870E875207720460A216230FBF7A6
:1091200000FC5834204621880A3001806188418043
:10913000A1888180E188C180218901810AA004F091
:10914000EBFE2389E288218809A004F0E5FE00F007
:109150001BF870BD602A0020202A00208991FF1F83
:109160008D92FF1F102300200A5F5F325F5F0A00AD
:109170000A202020523A25642020433A25642020EA
:109180004D3A25640A00000070B539490120394E76
:10919000487035882846FBF795FE02460B46364850
:1091A0003649FBF7DBFDFBF7E1FE044669087088F2
:1091B0007F25ED05884211D8FBF769FE2146FBF7B4
:1091C0002BFCFBF7BFFE2E4A2E4BFBF7ADFCFBF74B
:1091D000CDFE0446A8420BDD2C4609E0401AFBF701
:1091E0004BFE2146FBF718FC2946FBF711FC044611
:1091F0002548204D007E6235002821D02888FBF7C5
:1092000046FE2146FBF708FCFBF76AFE80B206F03B
:10921000A5F96888FBF73BFE2146FBF7FDFBFBF752
:109220005FFE80B206F0F0F8A888FBF730FE21461A
:10923000FBF7F2FBFBF754FE80B206F099F870BD25
:10924000E888FBF724FE2146FBF7E6FBFBF748FE28
:1092500080B206F0A3F82889FBF719FE2146FBF738
:10926000DBFBFBF73DFE80B206F094F970BD000019
:109270000C230020602A0020666666666666FE3F54
:10928000A09999999999A93F202A002010B5184CC6
:10929000207E002809D0002006F060F9002006F0AA
:1092A000B3F8002006F064F805E0002006F076F838
:1092B000002006F06FF906F0C9FC0E490020087086
:1092C0000D4908724880E0752071607E022160704F
:1092D000002806D0012804D0022804D0032803D097
:1092E00003E0E17001E00120E07004F05BF910BDE3
:1092F000202A00200C230020602A002010B51048EE
:10930000104C8078C00705D0E07C02280CD00328E0
:109310000AD00BE0207E00280A4802D007F098FC13
:1093200010BD07F033FA10BDFFF7F6F9207E0028D4
:1093300002D007F0B3F810BD07F0A8F810BD000088
:10934000602A0020202A002070B5104CA17D881FC3
:10935000082802D3FFF79AFF70BD0D48452202711D
:109360000C4A42610C4A8261002343800122028040
:10937000C2800372094DC560ED1E2A70E275037745
:109380000748085C6870FFF7B9FF70BD202A00200D
:10939000602A0020FD92FF1FC990FF1F0F230020AD
:1093A0002E1F002070B54868002501784078000223
:1093B00008181C4980B2441A884223D009DC1A4993
:1093C000441811D0012C12D0022C15D0032C08D136
:1093D00015E0012C19D0022C1AD0032C1BD0292CFB
:1093E0001CD00A25284670BD1946002001E0194608
:1093F000062006F007FDF5E719460720F9E71946AC
:109400000820F6E719460920F3E719460A20F0E795
:1094100019460B20EDE719460C20EAE719460D2006
:10942000E7E70000272A0000DDD5FFFF06480169B5
:109430004907FCD500218160034A0421803A11705C
:1094400001694907FCD570478000081110B5002854
:1094500007D0012806D0022808D0032801D103F044
:10946000C1FE10BD0423064A022105E003F0BAFE46
:109470000423034A1946121D202004F0A3FB10BD4B
:109480008D110020FFB5044681B01E4617461046D8
:10949000FBF726FD82B220460299FDF759FFC00076
:1094A0000019C5B2002E2CD02E2228460299FDF7B5
:1094B000F3FE012419E021460A2004F097FBFBF794
:1094C000E6FC3946FBF7A8FAFBF70AFD80B20A2151
:1094D000FBF7BEFEE0000A464019C01E3032C0B2A3
:1094E0000299FDF7D9FE641CE4B2B442E3D9F0005E
:1094F0004019401D0A9AC0B20299FDF7CDFE05B091
:10950000F0BD28460A9A0299FDF7C6FE0835E8B272
:109510002022F1E710B50446002007F031FB207847
:1095200000280BD0012867D0022806D0032804D1D8
:1095300003F058FEA078FEF74DFF10BD204606F060
:1095400007FCA078FEF746FF0C2206211020FDF74D
:1095500081FE204607F0CCF86078042801D3002073
:1095600060700006000E1FD001282DD002283BD0CD
:109570000328E2D100210323284A084604F022FBF5
:109580000E2203211020FDF765FEE07A0321401C26
:10959000C2B22820FDF75EFE204A0423921D03215B
:1095A000382004F00FFB10BD1C4A00210323D21CFD
:1095B000084604F007FB0A2203211020FDF74AFEAB
:1095C000204607F0FDFA10BD144A00210323D21CE7
:1095D000084604F0F7FA0B2203211020FDF73AFEAB
:1095E000204607F065FB10BD0C4A00210323D21E64
:1095F000084604F0E7FA07E00C2206211020FDF7E8
:1096000029FE204607F074F80D2203211020FDF7F3
:1096100021FE204607F032F910BD00008311002022
:1096200010B503F0BBFD03F005FE10BD064801694F
:109630004907FCD500218160034A0621803A117058
:1096400001694907FCD570478000081170B5104CBE
:10965000012525700020207103F074FE6570012142
:10966000122002F023F90121122002F0ABF97D2231
:10967000D2002902607DFBF7F7FD64220821607D9E
:10968000FBF7F2FD03A202211420FDF792FE70BD4C
:10969000D0220020523A00007CB52C4E694630465C
:1096A000FCF736FF684600780125002806D1684699
:1096B00005706A4601213046FDF766F8244C01A981
:1096C00025703046FCF724FF68460079002806D153
:1096D0006846057101AA01213046FDF755F825704D
:1096E0000026267106F0B6FE1E20A072E07203F07E
:1096F00029FE65700121122002F0D8F80121122004
:1097000002F060F97D22FF21D2000131607DFBF77C
:10971000ABFD64220821607DFBF7A6FDFEF756FE37
:10972000207D002804D026720A4806F095FF7CBDF3
:1097300007F020FCA27A02216420FDF709FEE27AFC
:1097400004216420FDF704FE7CBD00000503000039
:10975000D0220020202A002010B5064A0123517291
:109760009072D370002111710F201146FBF7B6FFE4
:1097700010BD0000202A002010B5074A5172D08089
:10978000642010720220D070002111713720114620
:10979000FBF7A4FF10BD0000202A0020F8B5304ED2
:1097A000304FF0683946007878708D7831464B88B4
:1097B00078795C1E01220988A4B2002817D03346AC
:1097C0001B880A3B012824D0022828D0032830D047
:1097D000042833D005283BD0062807D1002D05D119
:1097E0007480012C02D8BA7000207871F8BD002D69
:1097F00009D05B1C98B2891E70808842F6DB00207D
:10980000B8707A71F8BD002B01D07480F8BDBA70C1
:10981000F8BD0092C805DAB2010E042304E002206C
:10982000DAB205230A2100900E48401DFCF74EFDD8
:10983000F8BD0092022332220021F5E70A200090B1
:109840000848022308223221401D06F0D3F9F8BD52
:109850000520491FCAB2032337210090E4E7000026
:10986000602A00200C23002070B5FFF797FF1348F3
:10987000447A002C1ED0124840880A30FBF707FBC0
:109880001049FBF706F905462046FBF700FB0E4999
:10989000FBF7C2F80D49FBF7FCF80D49FBF763F83D
:1098A0000C49FBF7B9F82946FBF7B6F8FBF718FBAC
:1098B00080B200E0002005F071FD70BD202A00207C
:1098C000602A00200000C8420000C04200401C4640
:1098D0000AD7233D0000484470B51C4D1C4EE87A61
:1098E000002827D1F468FF2160896931401C80B2CB
:1098F0006081884201D3002060817F20C005E06044
:109900001448407AFBF7C3FA1349FBF785F813496B
:10991000FBF7BFF81249FBF726F82061287A0028E8
:1099200011D00A48142221462038FAF7E1FF2046D8
:1099300002F07CFFF06806F0FFFE04484038C06883
:109940000078707070BD01202872F0E7A02A002016
:109950000C230020202A00200000B64200401C46B4
:10996000EC51B83D10B5FFF7B7FF10BDF8B5854F06
:109970000122F86801788448417003469E783B468E
:109980001C885B884179A4465D1E0A3CADB2002963
:109990004DD00A2301295BD002295DD0032964D070
:1099A0000520042964D0052966D006296FD007292F
:1099B00066D0082970D0092962D00A2971D00B29F4
:1099C0007BD00C297DD00D296FD00E296ED00F29A8
:1099D0006DD010296CD011296BD012296AD01329AF
:1099E00069D06420142967D015296FD0664C1629D8
:1099F0006DD017294BD0182974D0192968D01A298D
:109A000067D01B2970D01C296FD01D296DD01E294D
:109A10006CD01F296BD020296AD0212911D1002EAA
:109A20000FD17D80012D0CD8A2700020A2E0002E65
:109A300008D05B1C99B27980A14202DB00218170C1
:109A40004271F8BD002B01D07D80F8BD8270F8BD59
:109A500000930A23462202E00123009228220521D6
:109A60004948401DFCF732FCF8BDC822262109E018
:109A700005234622009027E05020642300904DE00B
:109A800002226FE04048401D03F0A2F9F8BD5BE000
:109A900002E006E011E014E0092001230F2200900B
:109AA00058E000930123142254E013E016E019E07B
:109AB0001FE023E027E02AE02EE000930123282284
:109AC0001AE001233C2200902821C9E72DE036E06E
:109AD0003DE041E04B22D2003221D3E70A2300923D
:109AE000152209E001223DE03BE03DE03FE040E09F
:109AF00042E00093012332221421B1E700930223B4
:109B000037222321ACE705235522009022E00020D4
:109B100002235022009032E0052300902D223C21A8
:109B20001948401D06F066F8B0E703216046FBF7D0
:109B30008FFBC1B20020E2B20A23009090E7052318
:109B40002D224B210090EBE700930523ABE7009318
:109B500001231922022183E70F200A2314220090F7
:109B60000DE0002200218DE7282214218AE71F2022
:109B700000E02020607189E7009301233C220A2144
:109B80006EE70000602A00200C23002070B5FFF76C
:109B9000EDFE1348447A002C1ED0124840880A304B
:109BA000FBF775F91049FAF774FF05462046FBF7F5
:109BB0006EF90E49FAF730FF0D49FAF76AFF0D49C1
:109BC000FAF7D1FE0C49FAF727FF2946FAF724FFE6
:109BD000FBF786F980B200E0002005F0DBFC70BDE9
:109BE000202A0020602A00200000C8420000C04255
:109BF00000401C460AD7233D000048440E4910B5DA
:109C0000884201D90A2010BD0C49884201D20C4873
:109C10000EE00C49884201D20B4809E00B4988420A
:109C200001D20B4804E00449C91C884202D2094809
:109C300000F062F8002010BDFC3F0000FF0F0000A4
:109C400000500011FF1F000000600011FF2F0000F6
:109C500000700011008000110449884202D90020E0
:109C6000C04370470249401800687047FC3F00003D
:109C700000500011F0B504461E480E46844204D838
:109C8000A119814201D8A00701D00A20F0BD00230C
:109C9000B7080CE09D002819FFF7DEFF5055010AB8
:109CA000AD186970010C000EA970E8705B1C9F4232
:109CB000F0D89B00F01A032804D002280CD0012809
:109CC00012D015E01819FFF7C7FFD054040A9918ED
:109CD0004C70000C88700BE01819FFF7BDFFD054D2
:109CE000000A9918487003E01819FFF7B5FFD0541F
:109CF0000020F0BDFC3F000003460002012100B53A
:109D0000000A490388421BD3FEF736FD0028FBD129
:109D1000FFF78CFC0B490020886019021804090E1B
:109D20000843FF2109020B4018430649000280390D
:109D300020300860FEF720FD0028FBD1FFF776FBFE
:109D400000BD0000800008110B4A08B5904201D800
:109D5000820701D00A2008BD00910521090340189F
:109D60000002000A04226946FDF73AFB002801D0F0
:109D7000002008BD012008BDFC3F0000F7B50546E6
:109D80001E4882B01646854205D80399691881425B
:109D900001D8A80702D00A2005B0F0BD039800241E
:109DA000800800900CE0A700B819401CFAF7D1FD1C
:109DB0000102F05D01437819FFF7C6FF0098641CAB
:109DC000A042F0D80398A400001B032804D0022866
:109DD00008D001280CD00FE0A019FAF7BAFD010253
:109DE000090A06E0A019417800780902014300E061
:109DF000315D6019FFF7A8FF0020CDE7FC3F0000B0
:109E000038B504466846047069460320ABBE204658
:109E100038BD000010B5002823D0124B0022001FCF
:109E2000196803E0814203D80A4649680029F9D13C
:109E3000002A0AD01368841A9C4204D100681818BA
:109E40001060104602E0506000E01860002907D062
:109E500002680B1A934203D10B68D218026049685A
:109E6000416010BD3829002010B5064C207901282A
:109E700004D00120207102F02BFC206000206071D2
:109E800010BD00002423002010B5054C20790228C5
:109E900004D00220207102F01BFC206010BD0000E5
:109EA0002423002070B50A4D064600240E2060438E
:109EB000401906223146FBF70DFA002801D0204652
:109EC00070BD641CE4B20A2CF0D30A2070BD0000FF
